:100000000C945C010C94010F0C94320F0C94630F50
:100010000C94940F0C94C50F0C94F60F0C942710AD
:100020000C9458100C948D010C948D010C948D013E
:100030000C948D010C94A10E0C948D010C948D01E7
:100040000C948D010C948D010C948D010C948D01F8
:100050000C948D010C948D010C948D010C949A10CC
:100060000C948D010C94AC0A0C94E20A0C948D0152
:100070000C948D010C948D010C948D010C948D01C8
:100080000C948D010C948D010C948D010C948D01B8
:100090000C94590B0C948F0B0C948D010C948D01C6
:1000A0000C948D010C948D010C948D010C948D0198
:1000B0000C948D010C948D010C948D010C948D0188
:1000C0000C948D010C948D010C948D010C94060CF4
:1000D0000C943C0C0C948D010C94B30C0C94E90C16
:1000E0000C948D01B611B911A811AC11B211F01117
:1000F000BD11C111C711CB11CF11D511D911DD110E
:10010000F011E311E711EB110C94B2110C94EB1107
:100110000C940C0B0C94B9110C94E3110C94FB048B
:100120000C949A0D0C94C3090C942E090C94160B84
:100130000C94B90B0C948F010C94CF110C94CB112F
:100140000C94600D0C9451090C94A90D0C94650944
:100150000C94B6110C94AC110C94E5090C94A811F4
:100160000C94D5110C94EF040C94700C0C94C30BEC
:100170000C94F0110C94130D0C94BD110C941D0DE6
:100180000C9436090C9443090C9407050C94C71180
:100190000C94C1110C94DD110C94660C0C94E711B5
:1001A0000C94D9110200000A0B02090C0D0E08076D
:1001B0000304010000000000000000000000000037
:1001C000000000000000000000000000000000002F
:1001D00000121110000000000000000000000000EC
:1001E00000000000000000000000000102102020BC
:1001F000080810204010204080020102010804027B
:1002000001010204081020408080402010080402F0
:100210000180040201804020100804020108040249
:10022000010102040810204080010204081020404F
:100230008005050505070508080808020202020AEC
:100240000A08080404040401010101010101010379
:1002500003030303030303040707070C0C0C0C0C34
:100260000C0C0C0202020206060606060606060B27
:100270000B0B0B0B0B0B0B00002200250028002B97
:10028000002E003100340002010000050108010BBE
:100290000100002100240027002A002D0030003337
:1002A0000001010000040107010A01002E09160BDC
:1002B000C30B700C1D0D9A0D11241FBECFEFD1E2A0
:1002C000DEBFCDBF00E00CBF12E0A0E0B2E0EAE28A
:1002D000FBE200E00BBF02C007900D92A833B1070C
:1002E000D9F725E0A8E3B2E001C01D92AA36B20713
:1002F000E1F712E0C8EBD2E000E006C02297010966
:10030000FE010BBF0E948015CC3AD10780E00807A0
:10031000A9F70E948B100C9493150C940000209A5E
:10032000089580E090E0FC01EE5AFD4F10821182AA
:100330001282039682349105B1F710929E021092B8
:100340009D020E9460124091100250911102809112
:100350004A02811145C010923C0210923B028FEF7D
:1003600080933F0280934002809341028093420237
:10037000809343028093440281E08093450210926F
:1003800047021092460210923E0210923D02809166
:10039000CB029091CC02892B31F489E392E09093C7
:1003A000CC028093CB02E091C902F091CA0230974F
:1003B00021F089E392E09583848389E392E090932E
:1003C000CA028093C902109249021092480287E142
:1003D00092E090933A028093390281E080934A023E
:1003E00020E030E062E572E089E392E00E945D087F
:1003F0000E94E41060939402709395028093960299
:10040000909397021092A30282E592E09093A50246
:100410008093A4028DE092E09093A2028093A102C7
:100420008AE092E09093A00280939F0208950F9338
:100430001F9310929C020E94E4100091940210916C
:1004400095022091960230919702601B710B820BEE
:10045000930B609398027093990280939A02909301
:100460009B020E94E4106093940270939502809323
:100470009602909397020E946D120E940D07809140
:100480001F0290912002FC0160811F910F910C943A
:10049000DA08FF920F931F93CF93DF93EC018091C3
:1004A00038028F5F982F97709093380280FD02C0BA
:1004B00080E001C080E891FD8064947009F0806262
:1004C00090E1F92EF80E20E030E000E011E0FE01AE
:1004D000E20FF31F6285662331F070E0C8010E94CD
:1004E00032156F5F01C060E067834F2D469F412D3D
:1004F00011244483662311F0615067832F5F3F4FBF
:100500002330310521F7DF91CF911F910F91FF909B
:1005100008952F923F924F925F926F927F928F92A7
:100520009F92AF92BF92CF92DF92EF92FF920F9382
:100530001F93CF93DF93CDB7DEB761970FB6F894D3
:10054000DEBF0FBECDBF6C015A01F901DC011C9664
:100550008C917A8369835C834B8390819B879181A3
:100560009C8792819D87813029F4CE0101960E945B
:10057000490206C01A86198618861F821E821D82AD
:1005800089819A818E0D911D9A838983002319F0A8
:1005900083E08E0D01C080E08E870E94F010F6018E
:1005A00027853089621B730B62337105B0F3F894B1
:1005B000E981FA8185B1289858848D81452D481BA1
:1005C0004D837081772321F0740F08F47FEF01C011
:1005D00070E02B85729F712D11248E85AB81BC81BB
:1005E0009C853D856E80688A7F80798A39844A84BB
:1005F000E12C1F86212CF12C3D0161E0661A710867
:10060000AB2B09F499C1052D041B402F132D5889DC
:10061000151B188B642D0989601B698B95B0192DEA
:100620001160912E85B0582D5E7F852ED301122D3D
:100630000F857888662E6F2D5E2D95B800C077FFE8
:1006400085B861811127889400C000C0002C85B84E
:100650006111670D00C0002C95B800C076FF85B809
:1006600008F46FEF889400C000C000C085B890FD0A
:10067000160F00C0002C95B800C075FF85B81795FF
:10068000889491FD160F00C000C0002C85B8179506
:10069000889400C0002C95B800C074FF85B892FD06
:1006A000160F1795889400C000C0002C85B893FDE4
:1006B000160F00C0002C95B800C073FF85B81795C1
:1006C000889494FD160F00C000C0002C85B81795C3
:1006D000889400C0002C95B800C072FF85B895FDC5
:1006E000160F1795889400C000C0002C85B896FDA1
:1006F000160F00C0002C95B800C071FF85B8179583
:10070000889497FD160F00C000C0002C85B817957F
:10071000889400C0002C95B800C070FF85B800C058
:1007200000C0002C00C000C085B800C000C0002C74
:1007300095B800C017FF85B862810027889400C073
:1007400000C0002C85B86111660D00C0002C95B862
:1007500000C016FF85B808F46FEF889400C000C091
:1007600000C085B830FD060F00C0002C95B800C051
:1007700015FF85B80795889431FD060F00C000C0AD
:10078000002C85B80795889400C0002C95B800C04F
:1007900014FF85B832FD060F0795889400C000C08D
:1007A000002C85B833FD060F00C0002C95B800C0A2
:1007B00013FF85B80795889434FD060F00C000C06C
:1007C000002C85B80795889400C0002C95B800C00F
:1007D00012FF85B835FD060F0795889400C000C04C
:1007E000002C85B836FD060F00C0002C95B800C05F
:1007F00011FF85B80795889437FD060F00C000C02B
:10080000002C85B80795889400C0002C95B800C0CE
:1008100010FF85B8E80FF11D889400C000C000C02B
:1008200085B800C000C0002C95B800C007FF85B88F
:1008300060817727889400C000C0002C85B86111C2
:10084000640F00C0002C95B800C006FF85B808F4FE
:100850006FEF889400C000C000C085B820FD760FFF
:1008600000C0002C95B800C005FF85B87795889426
:1008700021FD760F00C000C0002C85B877958894C4
:1008800000C0002C95B800C004FF85B822FD760F8B
:100890007795889400C000C0002C85B823FD760FA2
:1008A00000C0002C95B800C003FF85B877958894E8
:1008B00024FD760F00C000C0002C85B87795889481
:1008C00000C0002C95B800C002FF85B825FD760F4A
:1008D0007795889400C000C0002C85B826FD760F5F
:1008E00000C0002C95B800C001FF85B877958894AA
:1008F00027FD760F00C000C0002C85B8779588943E
:1009000000C0002C95B800C000FF85B800C000C032
:10091000002C00C000C00F87F62E788A698A612FEC
:100920001F2D85B8698A788AE52EF12E0F87262E2D
:1009300000C000C0002C60CE20EE31E0D5010E9446
:100940006E156130A0E47A0781059105B0F0009141
:100950006205109163052091640530916505DC0105
:10096000CB014EE0B695A795979587954A95D1F717
:10097000800F911FA21FB31F0BC080916205909141
:100980006305A0916405B09165050196A11DB11D97
:100990008093620590936305A0936405B093650509
:1009A00078940E94F010F601708B678761960FB6FD
:1009B000F894DEBF0FBECDBFDF91CF911F910F9195
:1009C000FF90EF90DF90CF90BF90AF909F908F906F
:1009D0007F906F905F904F903F902F900895EF928F
:1009E000FF920F93E12CF12C00E00E9489020F91FD
:1009F000FF90EF900895EF92FF920F93E12CF12C6E
:100A000001E00E9489020F91FF90EF900895EF920C
:100A1000FF920F93CF93DF9300D0CDB7DEB7AB013A
:100A200019821A821B82E12CF12C00E09E012F5FBB
:100A30003F4FB9010E9489020F900F900F90DF91F4
:100A4000CF910F91FF90EF9008952F923F924F9288
:100A50005F926F927F928F929F92AF92BF92CF924E
:100A6000DF92EF92FF920F931F93CF93DF93CDB757
:100A7000DEB72C970FB6F894DEBF0FBECDBF8091C6
:100A80009C022090A1023090A2020091A402109139
:100A9000A50220911002309111023A87298780FF28
:100AA0004EC080E090E00D5F1F4FE985FA858E17FC
:100AB0009F0789F0D10112962C91129711963C91C3
:100AC00011974C91F80133974083319630833196DA
:100AD00020830196E8CF1092AE021092AF021092DE
:100AE000B0021092B1021092AA021092AB021092C0
:100AF000AC021092AD021092A6021092A7021092C0
:100B0000A8021092A90260E08DE02C960FB6F8942E
:100B1000DEBF0FBECDBFDF91CF911F910F91FF9030
:100B2000EF90DF90CF90BF90AF909F908F907F908D
:100B30006F905F904F903F902F900C942A1260918D
:100B400098027091990280919A0290919B020E9462
:100B5000F51325E63FEC4BE857E30E94AB146B011D
:100B60007C016091A30270E080E090E00E94F513A8
:100B70009B01AC01C701B6010E94AB142B013C01E3
:100B8000D1016C9170E080E090E00E94F7139B012E
:100B9000AC01C301B2010E94AB142091AE023091AE
:100BA000AF024091B0025091B1020E94FD124B0180
:100BB0005C016093AE027093AF028093B002909399
:100BC000B102F101618170E080E090E00E94F713D2
:100BD0009B01AC01C301B2010E94AB142091AA0297
:100BE0003091AB024091AC025091AD020E94FD12D7
:100BF0006B017C016093AA027093AB028093AC02FC
:100C00009093AD02D10112966C9170E080E090E07B
:100C10000E94F7139B01AC01C301B2010E94AB1407
:100C20002091A6023091A7024091A8025091A902FA
:100C30000E94FD1269837A838B839C836093A60252
:100C40007093A7028093A8029093A9021E830D833C
:100C5000212C312C18861F828F819885A985BA8511
:100C600020E030E040E85FE38A179B0709F488C082
:100C7000C501B4010E94A7141816DCF4ED81FE81B1
:100C8000608170E080E090E00E94F7132B013C014E
:100C9000A50194010E94A71418165CF4A501940103
:100CA000C301B2010E94FC120E94C913AD81BE8132
:100CB0006C9320E030E040E85FE3C701B6010E949A
:100CC000A7141816FCF4F801E20DF31DFC87EB875E
:100CD000618170E080E090E00E94F7132B013C01FD
:100CE000A70196010E94A714181664F4A7019601A3
:100CF000C301B2010E94FC120E94C913AB85BC85DE
:100D000011966C9320E030E040E85FE369817A81DE
:100D10008B819C810E94A71418161CF5F801E20D26
:100D2000F31DFC87EB87628170E080E090E00E9419
:100D3000F7132B013C0129813A814B815C810E9490
:100D4000A714181674F429813A814B815C81C30180
:100D5000B2010E94FC120E94C913AB85BC85129699
:100D60006C93EF81F8853196F887EF83F3E02F0ECF
:100D7000311C2D813E812D5F3F4F3E832D836CCFF3
:100D8000C501B4010E94A714181644F41092AE02D3
:100D90001092AF021092B0021092B10220E030E047
:100DA00040E85FE3C701B6010E94A714181644F497
:100DB0001092AA021092AB021092AC021092AD02F5
:100DC00020E030E040E85FE369817A818B819C819B
:100DD0000E94A714181644F41092A6021092A702BB
:100DE0001092A8021092A9022C960FB6F894DEBFBA
:100DF0000FBECDBFDF91CF911F910F91FF90EF906C
:100E0000DF90CF90BF90AF909F908F907F906F902A
:100E10005F904F903F902F90089580919D0280FDAC
:100E20000E94250580919D0281FD0C94180708956C
:100E3000CF92DF92EF92FF92CF93DF938091BB022C
:100E4000811110C0E091A402F091A50280818093ED
:100E5000B80281818093B90282818093BA0281E0D5
:100E60008093BB0280919C0281FF1FC01092B70249
:100E70001092B602E091A402F091A50280818093C5
:100E8000B80281818093B90282818093BA02A091D5
:100E90009F02B091A00212968C91129711969C918C
:100EA00011972C91208391838283C0911002D0915D
:100EB00011026091A30270E080E090E00E94F513BF
:100EC0009B01AC0160E070E080E89FE30E94611349
:100ED00020E030E040E752E40E94AB1420E030E034
:100EE0004AE754E40E94AB146B017C01BE0180E030
:100EF00090E00E94F5139B01AC01C701B6010E946E
:100F000061136B017C01609198027091990280914C
:100F10009A0290919B020E94F5132091B2023091A7
:100F2000B3024091B4025091B5020E94FD12609349
:100F3000B2027093B3028093B4029093B502A701FA
:100F400096010E94A71487FD68C01092B202109209
:100F5000B3021092B4021092B502E091B6028E2F45
:100F600090E021972091B7028C179D07B8F52111C9
:100F700035C0EF5FE093B6028091A4029091A50284
:100F800023E0E29FF0011124DF011397A80FB91F9E
:100F90002091B8022C932091B90211962C931197AD
:100FA0002091BA0212962C93E80FF91F808180934A
:100FB000B80281818093B90282818093BA02A091A4
:100FC0009F02B091A00212968C91129711969C915B
:100FD00011972C912083918382831FC021111DC002
:100FE0008C179D07D1F4A091A402B091A50283E0D3
:100FF000E89FA00DB11D11248091B8028C938091BF
:10100000B90211968C9311978091BA0212968C9323
:101010001092B60281E08093B702DF91CF91FF90EA
:10102000EF90DF90CF900895CF92DF92EF92FF92F2
:101030000F931F93CF93DF93FC018B0110821182DA
:101040001282442381F1C0E0D0E0C42ED12CE12CE7
:10105000F12CD801AC0FBD1F16962C91169719963E
:101060006C912223E1F06623D1F030E040E050E0C3
:101070002F5F3F4F4F4F5F4F70E080E090E06F5F1A
:101080007F4F8F4F9F4F0E940E159B01AC01C701F0
:10109000B6010E940E15DF01AC0FBD1F8C93219687
:1010A000C330D105B1F6CF01DF91CF911F910F91E0
:1010B000FF90EF90DF90CF900895CF92DF92EF9264
:1010C000FF920F931F93CF93DF93EC016B018A0183
:1010D0007901121613061CF07A0100E010E0E88195
:1010E000F9810480F581E02DCE011995C801880FA2
:1010F000991F800F911F8C0D9D1D9B838A83FE86F7
:10110000ED86CE01DF91CF911F910F91FF90EF906F
:10111000DF90CF900895CF92DF92EF92FF92CF931E
:10112000DF93EC018091C7029091C8029C012F5F70
:101130003F4F3093C8022093C702861797079CF150
:101140000E94E4109B01AC01E091C702F091C8023B
:1011500088EE93E0E89FB001E99F700DF89F700D55
:101160001124882777FD8095982FC090C302D090D6
:10117000C402E090C502F090C6022C193D094E0948
:101180005F090E9446153A8329831092C802109283
:10119000C7020E94E4106093C3027093C40280935C
:1011A000C5029093C602DF91CF91FF90EF90DF9040
:1011B000CF900895AF92BF92CF92DF92EF92FF92BD
:1011C0000F931F93CF93DF9300D0CDB7DEB77C0191
:1011D000B62E0091CB021091CC020115110559F1E8
:1011E000D8011C96AC901C97F701818192818436BE
:1011F000910510F41C961C92D801ED91FC91C280CF
:10120000D3804B2DB801CE0101960E941408F8013D
:1012100045855685628173819E012F5F3F4FC801CE
:10122000F6011995D8011C96AC921C9714960D9155
:101230001C911597D2CF69E170E0C7010E948B081D
:101240000F900F900F90DF91CF911F910F91FF9012
:10125000EF90DF90CF90BF90AF9008958FEF809385
:10126000CD021092CF021092CE020895FC01818D22
:10127000228D90E0805C9F4F821B910960E470E0BA
:101280000E9432150895FC01918D828D981731F0DE
:10129000828DE80FF11D858D90E008958FEF9FEF0F
:1012A0000895FC01918D828D981761F0828DDF0188
:1012B000A80FB11D5D968C91928D9F5F9F73928F49
:1012C00090E008958FEF9FEF08958CE09BE0892BCD
:1012D00041F080E090E0892B21F00E940C0B8111FD
:1012E00025C089EB9BE0892B41F080E090E0892BC1
:1012F00021F00E94B90B81111CC086E69CE0892B6D
:1013000041F080E090E0892B21F00E94660C811171
:1013100013C083E19DE0892BA1F080E090E0892B50
:1013200081F00E94130D81110AC008950E940000EF
:10133000D8CF0E940000E1CF0E940000EACF0C94B9
:1013400000000895FC01848DDF01A80FB11DA35A90
:10135000BF4F2C91848D90E001968F739927848FD5
:10136000A689B7892C93A089B1898C9180648C93CC
:10137000938D848D981306C00288F389E02D8081B7
:101380008F7D80830895CF93DF93EC01888D882330
:10139000C9F0EA89FB89808185FD05C0A889B989E2
:1013A0008C9186FD0FC00FB607FCF5CF808185FFBD
:1013B000F2CFA889B9898C9185FFEDCFCE010E942B
:1013C000A209E7CFDF91CF910895CF92DF92FF92EC
:1013D0000F931F93CF93DF931F92CDB7DEB76C01AE
:1013E000DC015B969C915B975C968C915C97981363
:1013F00007C05096ED91FC915197808185FD32C0D8
:10140000F601038D10E00F5F1F4F0F731127F02EB1
:10141000F601848DF81211C00FB607FCF9CFD60182
:101420005096ED91FC915197808185FFF1CFC601D7
:1014300069830E94A2096981EBCF838DE80FF11DBA
:10144000E35AFF4F6083D6015B960C935B975296ED
:10145000ED91FC91539780818062808381E0589662
:101460008C930DC0D6015696ED91FC9157976083F1
:101470005096ED91FC91519780818064808381E04A
:1014800090E00F90DF91CF911F910F91FF90DF902F
:10149000CF900895BF92CF92DF92EF92FF92CF93B9
:1014A000DF93EC016A017B01B22EE889F98982E0C1
:1014B0008083411581EE580761057105A1F060E058
:1014C00079E08DE390E0A70196010E944615215036
:1014D00031094109510956954795379527952115A9
:1014E00080E1380798F0E889F989108260E874E8AB
:1014F0008EE190E0A70196010E9446152150310926
:10150000410951095695479537952795EC85FD85F5
:101510003083EE85FF852083188EEC89FD89B082AB
:10152000EA89FB89808180618083EA89FB898081E7
:1015300088608083EA89FB89808180688083EA896A
:10154000FB8980818F7D8083DF91CF91FF90EF9029
:10155000DF90CF90BF9008951F920F920FB60F9219
:1015600011240BB60F922F938F939F93EF93FF93BA
:10157000E091E002F091E1028081E091E602F091D9
:10158000E70282FD12C090818091E9028F5F8F7324
:101590002091EA02821751F0E091E902F0E0E05375
:1015A000FD4F958F8093E90201C08081FF91EF91FB
:1015B0009F918F912F910F900BBE0F900FBE0F90A8
:1015C0001F9018951F920F920FB60F9211240BB611
:1015D0000F922F933F934F935F936F937F938F93CC
:1015E0009F93AF93BF93EF93FF9380ED92E00E94A0
:1015F000A209FF91EF91BF91AF919F918F917F9140
:101600006F915F914F913F912F910F900BBE0F9073
:101610000FBE0F901F90189580ED92E00E94360942
:1016200021E0892B09F420E0822F08951092D30243
:101630001092D20288EE93E0A0E0B0E08093D40252
:101640009093D502A093D602B093D70285E292E0A0
:101650009093D1028093D00285EC90E09093DD02CC
:101660008093DC0284EC90E09093DF028093DE02B2
:1016700080EC90E09093E1028093E00281EC90E0B6
:101680009093E3028093E20282EC90E09093E50273
:101690008093E40286EC90E09093E7028093E60268
:1016A0001092E9021092EA021092EB021092EC0200
:1016B00008951F920F920FB60F9211240BB60F923E
:1016C0002F938F939F93EF93FF93E0917D03F0917E
:1016D0007E038081E0918303F091840382FD12C038
:1016E0009081809186038F5F8F732091870382178B
:1016F00051F0E0918603F0E0E359FC4F958F809321
:10170000860301C08081FF91EF919F918F912F916E
:101710000F900BBE0F900FBE0F901F9018951F9249
:101720000F920FB60F9211240BB60F922F933F9387
:101730004F935F936F937F938F939F93AF93BF93D9
:10174000EF93FF938DE693E00E94A209FF91EF9142
:10175000BF91AF919F918F917F916F915F914F91C9
:101760003F912F910F900BBE0F900FBE0F901F90C7
:1017700018958DE693E00E94360921E0892B09F443
:1017800020E0822F08951092700310926F0388EE6C
:1017900093E0A0E0B0E08093710390937203A09374
:1017A0007303B093740385E292E090936E03809389
:1017B0006D038DEC90E090937A03809379038CEC29
:1017C00090E090937C0380937B0388EC90E090936F
:1017D0007E0380937D0389EC90E090938003809357
:1017E0007F038AEC90E090938203809381038EECD8
:1017F00090E0909384038093830310928603109269
:101800008703109288031092890308951F920F9204
:101810000FB60F9211240BB60F922F938F939F93B5
:10182000EF93FF93E0911A04F0911B048081E09103
:101830002004F091210482FD12C090818091230444
:101840008F5F8F7320912404821751F0E09123045D
:10185000F0E0E65FFB4F958F8093230401C0808109
:10186000FF91EF919F918F912F910F900BBE0F9051
:101870000FBE0F901F9018951F920F920FB60F92E8
:1018800011240BB60F922F933F934F935F936F9357
:101890007F938F939F93AF93BF93EF93FF938AE0D0
:1018A00094E00E94A209FF91EF91BF91AF919F91A7
:1018B0008F917F916F915F914F913F912F910F90F9
:1018C0000BBE0F900FBE0F901F9018958AE094E00A
:1018D0000E94360921E0892B09F420E0822F089527
:1018E00010920D0410920C0488EE93E0A0E0B0E09A
:1018F00080930E0490930F04A0931004B0931104EE
:1019000085E292E090930B0480930A0485ED90E0C9
:10191000909317048093160484ED90E0909319043B
:101920008093180480ED90E090931B0480931A0438
:1019300081ED90E090931D0480931C0482ED90E073
:1019400090931F0480931E0486ED90E090932104F1
:1019500080932004109223041092240410922504F2
:101960001092260408951F920F920FB60F92112421
:101970000BB60F922F938F939F93EF93FF93E0916A
:10198000B704F091B8048081E091BD04F091BE04E9
:1019900082FD12C090818091C0048F5F8F7320916F
:1019A000C104821751F0E091C004F0E0E955FB4F0B
:1019B000958F8093C00401C08081FF91EF919F912A
:1019C0008F912F910F900BBE0F900FBE0F901F9015
:1019D00018951F920F920FB60F9211240BB60F920B
:1019E0002F933F934F935F936F937F938F939F9327
:1019F000AF93BF93EF93FF9387EA94E00E94A2090D
:101A0000FF91EF91BF91AF919F918F917F916F91D6
:101A10005F914F913F912F910F900BBE0F900FBE92
:101A20000F901F90189587EA94E00E94360921E0F4
:101A3000892B09F420E0822F08951092AA041092B5
:101A4000A90488EE93E0A0E0B0E08093AB0490930B
:101A5000AC04A093AD04B093AE0485E292E0909301
:101A6000A8048093A70485E391E09093B404809345
:101A7000B30484E391E09093B6048093B50480E3CB
:101A800091E09093B8048093B70481E391E0909340
:101A9000BA048093B90482E391E09093BC048093EC
:101AA000BB0486E391E09093BE048093BD04109242
:101AB000C0041092C1041092C2041092C30408958D
:101AC000AF92BF92CF92DF92EF92FF920F931F934C
:101AD000CF93DF936C017B01C0E0D0E000E010E029
:101AE000F601EC0FFD1F4AE050E06281C7010E9441
:101AF000540E5C016EE2C7010E94E70D8A0D9B1D2A
:101B0000080F191F2196C330D10551F74AE050E064
:101B1000F6016581C7010E94540E800F911FDF916D
:101B2000CF911F910F91FF90EF90DF90CF90BF90DA
:101B3000AF90089585E392E0909345058093440526
:101B400010924605109247051092480510924905DB
:101B50000895CF92DF92EF92FF920F931F93CF934E
:101B6000DF936C017A01EB01E60EF71E00E010E056
:101B7000CE15DF0561F06991D601ED91FC910190E0
:101B8000F081E02DC6011995080F191FF1CFC8018A
:101B9000DF91CF911F910F91FF90EF90DF90CF9049
:101BA00008956115710581F0DB010D900020E9F7C2
:101BB000AD0141505109461B570BDC01ED91FC91E1
:101BC0000280F381E02D199480E090E00895DC011B
:101BD000ED91FC910190F081E02D19948F929F92EC
:101BE000AF92BF92CF92DF92EF92FF920F931F932B
:101BF000CF93DF93CDB7DEB7A1970FB6F894DEBFD2
:101C00000FBECDBF7C01C42EE52FCB01D22E19A271
:101C100021E02D1510F02AE0D22E8E010F5D1F4F0E
:101C20008D2C912CA12CB12C6C2D7E2FA501940113
:101C30000E9446158C2DD29E801911240150110945
:101C40008A3014F4805D01C0895CF801808321151D
:101C500031054105510521F0C22EE32FCA01E4CF21
:101C6000B801C7010E94D10DA1960FB6F894DEBF4E
:101C70000FBECDBFDF91CF911F910F91FF90EF90DD
:101C8000DF90CF90BF90AF909F908F9008952115D7
:101C9000310541F4DC01ED91FC910190F081E02DE2
:101CA000642F19940C94EE0D9A01462F50E060E0D9
:101CB00070E00C94470E8230A9F028F4882349F094
:101CC000813051F00895843009F1E8F0853009F150
:101CD000089510926E00089580916F008D7F80931B
:101CE0006F000895809170008D7F8093700081E077
:101CF0008093B0008091B100887F84608093B100B0
:101D00001092B3000895109271000895109272001D
:101D10000895109273000895CF93C82F80911202F6
:101D20008C1307C0E4EAF1E084919FEF90931202D4
:101D300001C08FEF0E945B0E60E08C2FCF910C945E
:101D40002A121F920F920FB60F9211240BB60F9208
:101D50002F933F934F935F936F937F938F939F93B3
:101D6000AF93BF93EF93FF9380914D0590914E05F4
:101D7000A0914F05B0915005892B8A2B8B2B51F1E7
:101D800090914A05E0914B05F0914C05808189279F
:101D9000808380914D0590914E05A0914F05B091A3
:101DA0005005181619061A061B06C4F480914D0535
:101DB00090914E05A0914F05B09150050197A10952
:101DC000B10980934D0590934E05A0934F05B093B4
:101DD000500504C0809112020E948C0EFF91EF9179
:101DE000BF91AF919F918F917F916F915F914F9133
:101DF0003F912F910F900BBE0F900FBE0F901F9031
:101E000018951F920F920FB60F9211240BB60F92D6
:101E10002F933F934F935F936F937F938F939F93F2
:101E2000AF93BF93EF93FF93809155059091560523
:101E3000892B29F0E0915505F09156051995FF91F0
:101E4000EF91BF91AF919F918F917F916F915F9132
:101E50004F913F912F910F900BBE0F900FBE0F909F
:101E60001F9018951F920F920FB60F9211240BB668
:101E70000F922F933F934F935F936F937F938F9323
:101E80009F93AF93BF93EF93FF93809157059091EA
:101E90005805892B29F0E0915705F09158051995BF
:101EA000FF91EF91BF91AF919F918F917F916F9132
:101EB0005F914F913F912F910F900BBE0F900FBEEE
:101EC0000F901F9018951F920F920FB60F9211242A
:101ED0000BB60F922F933F934F935F936F937F9324
:101EE0008F939F93AF93BF93EF93FF938091590587
:101EF00090915A05892B29F0E0915905F0915A05E6
:101F00001995FF91EF91BF91AF919F918F917F9123
:101F10006F915F914F913F912F910F900BBE0F905A
:101F20000FBE0F901F9018951F920F920FB60F9231
:101F300011240BB60F922F933F934F935F936F93A0
:101F40007F938F939F93AF93BF93EF93FF93809172
:101F50005B0590915C05892B29F0E0915B05F09180
:101F60005C051995FF91EF91BF91AF919F918F9172
:101F70007F916F915F914F913F912F910F900BBE89
:101F80000F900FBE0F901F9018951F920F920FB6D3
:101F90000F9211240BB60F922F933F934F935F93A1
:101FA0006F937F938F939F93AF93BF93EF93FF9321
:101FB0008091510590915205892B29F0E0915105AE
:101FC000F09152051995FF91EF91BF91AF919F91BB
:101FD0008F917F916F915F914F913F912F910F90D2
:101FE0000BBE0F900FBE0F901F9018951F920F926F
:101FF0000FB60F9211240BB60F922F933F934F936E
:102000005F936F937F938F939F93AF93BF93EF9360
:10201000FF938091530590915405892B29F0E0910D
:102020005305F09154051995FF91EF91BF91AF9130
:102030009F918F917F916F915F914F913F912F91E0
:102040000F900BBE0F900FBE0F901F9018951F9210
:102050000F920FB60F9211240BB60F922F933F934E
:102060004F935F936F937F938F939F93AF93BF93A0
:10207000EF93FF9380915D0590915E05892B29F088
:10208000E0915D05F0915E051995FF91EF91BF918B
:10209000AF919F918F917F916F915F914F913F9100
:1020A0002F910F900BBE0F900FBE0F901F901895A1
:1020B0001F920F920FB60F9211240BB60F922F930F
:1020C0003F934F935F936F937F938F939F93AF93C0
:1020D000BF93EF93FF9380915F0590916005892BEB
:1020E00029F0E0915F05F09160051995FF91EF915E
:1020F000BF91AF919F918F917F916F915F914F9120
:102100003F912F910F900BBE0F900FBE0F901F901D
:102110001895089508950E943B110E948A100E940C
:102120009101C5E6D9E00E9417022097E1F30E94D1
:102130006509F9CF1F920F920FB60F9211242F93BA
:102140003F938F939F93AF93BF938091620590913C
:102150006305A0916405B09165053091610523E0A8
:10216000230F2D3720F40196A11DB11D05C026E8CF
:10217000230F0296A11DB11D209361058093620576
:1021800090936305A0936405B093650580916605FF
:1021900090916705A0916805B09169050196A11D10
:1021A000B11D8093660590936705A0936805B09371
:1021B0006905BF91AF919F918F913F912F910F90A2
:1021C0000FBE0F901F9018952FB7F894609162057D
:1021D0007091630580916405909165052FBF089506
:1021E0003FB7F8948091660590916705A0916805C6
:1021F000B091690526B5A89B05C02F3F19F001963F
:10220000A11DB11D3FBF6627782F892F9A2F620F1E
:10221000711D811D911D42E0660F771F881F991F58
:102220004A95D1F70895CF92DF92EF92FF92CF9324
:10223000DF936B017C010E94F010EB01C114D1040B
:10224000E104F10489F00E9489100E94F0106C1BD7
:102250007D0B683E734090F381E0C81AD108E10815
:10226000F108C851DC4FEACFDF91CF91FF90EF909A
:10227000DF90CF900895789484B5826084BD84B552
:10228000816084BD85B5826085BD85B5816085BD71
:10229000EEE6F0E0808181608083E1E8F0E010828A
:1022A000808182608083808181608083E0E8F0E0CB
:1022B000808181608083E1EBF0E0808184608083B5
:1022C000E0EBF0E0808181608083E1E9F0E08081F3
:1022D00082608083808181608083E0E9F0E080819A
:1022E00081608083E1EAF0E0808182608083808188
:1022F00081608083E0EAF0E0808181608083E1E2B8
:10230000F1E0808182608083808181608083E0E26F
:10231000F1E0808181608083EAE7F0E08081846081
:1023200080838081826080838081816080838081DE
:10233000806880831092C100089590E0FC0131977D
:10234000E231F10508F04CC0EE58FF4F0C946815CF
:10235000809180008F7703C0809180008F7D809373
:102360008000089580918000877FF9CF84B58F77B2
:1023700002C084B58F7D84BD08958091B0008F77B1
:1023800003C08091B0008F7D8093B000089580914C
:1023900090008F7707C0809190008F7D03C080915F
:1023A0009000877F8093900008958091A0008F77A0
:1023B00007C08091A0008F7D03C08091A000877F1F
:1023C0008093A0000895809120018F7707C08091AD
:1023D00020018F7D03C080912001877F80932001A1
:1023E0000895CF93DF9390E0FC01E551FE4F2491D7
:1023F000FC01EF5CFD4F8491882349F190E0880F48
:10240000991FFC01EF56FD4FA591B49189589D4F3E
:10241000FC01C591D4919FB7611108C0F8948C91CB
:10242000209582238C93888182230AC0623051F4E4
:10243000F8948C91322F309583238C938881822B52
:10244000888304C0F8948C91822B8C939FBFDF917A
:10245000CF9108950F931F93CF93DF931F92CDB722
:10246000DEB7282F30E0F901EB55FE4F8491F901DA
:10247000E551FE4F1491F901EF5CFD4F04910023EB
:10248000C9F0882321F069830E949D116981E02FA2
:10249000F0E0EE0FFF1FE958FD4FA591B4919FB7F3
:1024A000F8948C91611103C01095812301C0812B98
:1024B0008C939FBF0F90DF91CF911F910F91089543
:1024C00061E08DE00E94F11126E040E855E260E015
:1024D00070E080ED92E00C944A0ACF93DF9380ED98
:1024E00092E00E943609181619060CF082C080EDA1
:1024F00092E00E94360907973CF461E070E080E0CA
:1025000090E00E941311F3CF80ED92E00E945109F8
:10251000811141C0C091A102D091A20280ED92E050
:102520000E9451098883C091A102D091A20280ED3E
:1025300092E00E9451098983C091A102D091A20228
:1025400080ED92E00E9451098A83C0919F02D09150
:10255000A00280ED92E00E9451098883C0919F0201
:10256000D091A00280ED92E00E9451098983C09130
:102570009F02D091A00280ED92E00E9451098A83CF
:1025800080ED92E00E943609892B99F180ED92E06E
:102590000E945109F5CF813061F580ED92E00E94F3
:1025A00051098093A30280ED92E00E94510980932B
:1025B0009C0280ED92E00E945109D82F80E0C82F44
:1025C000D0939E02C0939D0280ED92E00E9451093B
:1025D0008C2B9D2B90939E0280939D0280ED92E028
:1025E0000E943609892B29F080ED92E00E94510962
:1025F000F5CFDF91CF9108955058BB27AA270ED071
:102600006CC15DD130F062D120F031F49F3F11F404
:102610001EF452C10EF4E095E7FB48C1E92F6ED1DC
:1026200080F3BA17620773078407950718F071F4EF
:102630009EF586C10EF4E0950B2EBA2FA02D0B014E
:10264000B90190010C01CA01A0011124FF27591BF7
:1026500099F0593F50F4503E68F11A16F040A22FFD
:10266000232F342F4427585FF3CF4695379527956E
:10267000A795F0405395C9F77EF41F16BA0B620B6D
:10268000730B840BBAF09150A1F0FF0FBB1F661FB4
:10269000771F881FC2F70EC0BA0F621F731F841FF7
:1026A00048F4879577956795B795F7959E3F08F01D
:1026B000B3CF9395880F08F09927EE0F97958795DC
:1026C00008950CD00AC102D140F0F9D030F021F4C5
:1026D0005F3F19F0EBC0511134C1EEC00FD198F338
:1026E0009923C9F35523B1F3951B550BBB27AA2793
:1026F00062177307840738F09F5F5F4F220F331F05
:10270000441FAA1FA9F333D00E2E3AF0E0E830D0D0
:1027100091505040E695001CCAF729D0FE2F27D0D3
:10272000660F771F881FBB1F261737074807AB07A1
:10273000B0E809F0BB0B802DBF01FF2793585F4F16
:102740002AF09E3F510568F0B1C0FBC05F3FECF33B
:10275000983EDCF3869577956795B795F7959F5FDB
:10276000C9F7880F911D9695879597F90895E1E02F
:10277000660F771F881FBB1F621773078407BA078E
:1027800020F0621B730B840BBA0BEE1F88F7E095E9
:102790000895BCD088F09F5790F0B92F9927B75172
:1027A000A0F0D1F0660F771F881F991F1AF0BA9515
:1027B000C9F712C0B13081F0C3D0B1E00895C0C0F4
:1027C000672F782F8827B85F39F0B93FCCF386950B
:1027D00077956795B395D9F73EF490958095709568
:1027E00061957F4F8F4F9F4F0895E89409C097FBE5
:1027F0003EF490958095709561957F4F8F4F9F4FD8
:102800009923A9F0F92F96E9BB279395F69587951B
:1028100077956795B795F111F8CFFAF4BB0F11F4DE
:1028200060FF1BC06F5F7F4F8F4F9F4F16C0882385
:1028300011F096E911C0772321F09EE8872F762FBB
:1028400005C0662371F096E8862F70E060E02AF0FC
:102850009A95660F771F881FDAF7880F96958795E8
:1028600097F90895990F0008550FAA0BE0E8FEEFBD
:1028700016161706E807F907C0F012161306E40744
:10288000F50798F0621B730B840B950B39F40A263D
:1028900061F0232B242B252B21F408950A2609F41B
:1028A000A140A6958FEF811D811D089597F99F671F
:1028B00080E870E060E008959FEF80EC08950024C8
:1028C0000A941616170618060906089500240A9495
:1028D00012161306140605060895092E0394000C1B
:1028E00011F4882352F0BB0F40F4BF2B11F460FFAA
:1028F00004C06F5F7F4F8F4F9F4F089557FD9058D3
:10290000440F551F59F05F3F71F04795880F97FBB3
:10291000991F61F09F3F79F087950895121613066D
:102920001406551FF2CF4695F1DF08C0161617069C
:102930001806991FF1CF86957105610508940895D1
:10294000E894BB2766277727CB0197F908958ADF9C
:1029500008F48FEF08950BD0C0CFB1DF28F0B6DFB9
:1029600018F0952309F0A2CFA7CF1124EACFC6DF34
:10297000A0F3959FD1F3950F50E0551F629FF00192
:10298000729FBB27F00DB11D639FAA27F00DB11DEB
:10299000AA1F649F6627B00DA11D661F829F222774
:1029A000B00DA11D621F739FB00DA11D621F839FFB
:1029B000A00D611D221F749F3327A00D611D231FD1
:1029C000849F600D211D822F762F6A2F11249F571F
:1029D00050408AF0E1F088234AF0EE0FFF1FBB1F42
:1029E000661F771F881F91505040A9F79E3F5105E1
:1029F00070F05CCFA6CF5F3FECF3983EDCF386959A
:102A000077956795B795F795E7959F5FC1F7FE2B8B
:102A1000880F911D9695879597F90895DB018F93FF
:102A20009F930E947515BF91AF91A29F800D911D3C
:102A3000A39F900DB29F900D11240895AA1BBB1B5C
:102A400051E107C0AA1FBB1FA617B70710F0A61BAE
:102A5000B70B881F991F5A95A9F780959095BC01CF
:102A6000CD01089597FB072E16F4009407D077FD4B
:102A700009D00E941E1507FC05D03EF49095819563
:102A80009F4F0895709561957F4F0895A1E21A2E8A
:102A9000AA1BBB1BFD010DC0AA1FBB1FEE1FFF1F02
:102AA000A217B307E407F50720F0A21BB30BE40B52
:102AB000F50B661F771F881F991F1A9469F7609599
:102AC0007095809590959B01AC01BD01CF01089553
:102AD000EE0FFF1F0590F491E02D19940E948415CC
:102AE000B7FF0895821B930B08950E948415A59F3C
:102AF000900DB49F900DA49F800D911D11240895F9
:102B00000790F691E02D1994A29FB001B39FC001E8
:102B1000A39F700D811D1124911DB29F700D811D09
:0A2B20001124911D0895F894FFCFD1
:102B2A0000006A05800001000000960000001E07F0
:102B3A001600FF00000000EF04FB048F010705CD1B
:102B4A000200000000E509A90D360951094309C32D
:082B5A000900000000600D00FD
:00000001FF
