:100000000C945C010C94B30E0C94E40E0C94150F3C
:100010000C94460F0C94770F0C94A80F0C94D90FE6
:100020000C940A100C948D010C948D010C948D018C
:100030000C948D010C94530E0C948D010C948D0135
:100040000C948D010C948D010C948D010C948D01F8
:100050000C948D010C948D010C948D010C944C101A
:100060000C948D010C945E0A0C94940A0C948D01EE
:100070000C948D010C948D010C948D010C948D01C8
:100080000C948D010C948D010C948D010C948D01B8
:100090000C940B0B0C94410B0C948D010C948D0162
:1000A0000C948D010C948D010C948D010C948D0198
:1000B0000C948D010C948D010C948D010C948D0188
:1000C0000C948D010C948D010C948D010C94B80B43
:1000D0000C94EE0B0C948D010C94650C0C949B0C01
:1000E0000C948D0168116B115A115E116411A211EB
:1000F0006F11731179117D11811187118B118F117E
:10010000A211951199119D110C9464110C949D11DB
:100110000C94BE0A0C946B110C9495110C94FB0476
:100120000C944C0D0C9475090C94E0080C94C80ABE
:100130000C946B0B0C948F010C9481110C947D1119
:100140000C94120D0C9403090C945B0D0C9417097C
:100150000C9468110C945E110C9497090C945A112C
:100160000C9487110C94EF040C94220C0C94750BD6
:100170000C94A2110C94C50C0C946F110C94CF0C20
:100180000C94E8080C94F5080C9407050C9479116C
:100190000C9473110C948F110C94180C0C949911ED
:1001A0000C948B110200000A0B02090C0D0E0807BB
:1001B0000304010000000000000000000000000037
:1001C000000000000000000000000000000000002F
:1001D00000121110000000000000000000000000EC
:1001E00000000000000000000000000102102020BC
:1001F000080810204010204080020102010804027B
:1002000001010204081020408080402010080402F0
:100210000180040201804020100804020108040249
:10022000010102040810204080010204081020404F
:100230008005050505070508080808020202020AEC
:100240000A08080404040401010101010101010379
:1002500003030303030303040707070C0C0C0C0C34
:100260000C0C0C0202020206060606060606060B27
:100270000B0B0B0B0B0B0B00002200250028002B97
:10028000002E003100340002010000050108010BBE
:100290000100002100240027002A002D0030003337
:1002A0000001010000040107010A0100E008C80A7A
:1002B000750B220CCF0C4C0D11241FBECFEFD1E2D9
:1002C000DEBFCDBF00E00CBF12E0A0E0B2E0E2E58F
:1002D000FAE200E00BBF02C007900D92A833B1070D
:1002E000D9F725E0A8E3B2E001C01D92A634B20719
:1002F000E1F712E0C8EBD2E000E006C02297010966
:10030000FE010BBF0E941415CC3AD10780E008070C
:10031000A9F70E943D100C9427150C940000209A18
:10032000089580E090E0FC01EE5AFD4F10821182AA
:10033000128203968E319105B1F710927A021092D3
:1003400079020E9412124091100250911102809184
:100350004A02811145C010923C0210923B028FEF7D
:1003600080933F0280934002809341028093420237
:10037000809343028093440281E08093450210926F
:1003800047021092460210923E0210923D02809166
:10039000A7029091A802892B31F489E392E090930F
:1003A000A8028093A702E091A502F091A6023097DF
:1003B00021F089E392E09583848389E392E090932E
:1003C000A6028093A502109249021092480287E18A
:1003D00092E090933A028093390281E080934A023E
:1003E00020E030E062E572E089E392E00E940F08CD
:1003F0000E94961060937002709371028093720253
:100400009093730210927F0282E592E090938102B2
:10041000809380028DE092E090937E0280937D0233
:100420008AE092E090937C0280937B0208950F9380
:100430001F93109278020E94961000917002109102
:1004400071022091720230917302601B710B820B5A
:10045000930B60937402709375028093760290936D
:1004600077020E94961060937002709371028093DD
:100470007202909373020E941F120E94E406809100
:100480001F0290912002FC0160811F910F910C943A
:100490008C08FF920F931F93CF93DF93EC01809111
:1004A00038028F5F982F97709093380280FD02C0BA
:1004B00080E001C080E891FD8064947009F0806262
:1004C00090E1F92EF80E20E030E000E011E0FE01AE
:1004D000E20FF31F6285662331F070E0C8010E94CD
:1004E000C6146F5F01C060E067834F2D469F412DAA
:1004F00011244483662311F0615067832F5F3F4FBF
:100500002330310521F7DF91CF911F910F91FF909B
:1005100008952F923F924F925F926F927F928F92A7
:100520009F92AF92BF92CF92DF92EF92FF920F9382
:100530001F93CF93DF93CDB7DEB761970FB6F894D3
:10054000DEBF0FBECDBF6C015A01F901DC011C9664
:100550008C917A8369835C834B8390819B879181A3
:100560009C8792819D87813029F4CE0101960E945B
:10057000490206C01A86198618861F821E821D82AD
:1005800089819A818E0D911D9A838983002319F0A8
:1005900083E08E0D01C080E08E870E94A210F601DC
:1005A00027853089621B730B62337105B0F3F894B1
:1005B000E981FA8185B1289858848D81452D481BA1
:1005C0004D837081772321F0740F08F47FEF01C011
:1005D00070E02B85729F712D11248E85AB81BC81BB
:1005E0009C853D856E80688A7F80798A39844A84BB
:1005F000E12C1F86212CF12C3D0161E0661A710867
:10060000AB2B09F499C1052D041B402F132D5889DC
:10061000151B188B642D0989601B698B95B0192DEA
:100620001160912E85B0582D5E7F852ED301122D3D
:100630000F857888662E6F2D5E2D95B800C077FFE8
:1006400085B861811127889400C000C0002C85B84E
:100650006111670D00C0002C95B800C076FF85B809
:1006600008F46FEF889400C000C000C085B890FD0A
:10067000160F00C0002C95B800C075FF85B81795FF
:10068000889491FD160F00C000C0002C85B8179506
:10069000889400C0002C95B800C074FF85B892FD06
:1006A000160F1795889400C000C0002C85B893FDE4
:1006B000160F00C0002C95B800C073FF85B81795C1
:1006C000889494FD160F00C000C0002C85B81795C3
:1006D000889400C0002C95B800C072FF85B895FDC5
:1006E000160F1795889400C000C0002C85B896FDA1
:1006F000160F00C0002C95B800C071FF85B8179583
:10070000889497FD160F00C000C0002C85B817957F
:10071000889400C0002C95B800C070FF85B800C058
:1007200000C0002C00C000C085B800C000C0002C74
:1007300095B800C017FF85B862810027889400C073
:1007400000C0002C85B86111660D00C0002C95B862
:1007500000C016FF85B808F46FEF889400C000C091
:1007600000C085B830FD060F00C0002C95B800C051
:1007700015FF85B80795889431FD060F00C000C0AD
:10078000002C85B80795889400C0002C95B800C04F
:1007900014FF85B832FD060F0795889400C000C08D
:1007A000002C85B833FD060F00C0002C95B800C0A2
:1007B00013FF85B80795889434FD060F00C000C06C
:1007C000002C85B80795889400C0002C95B800C00F
:1007D00012FF85B835FD060F0795889400C000C04C
:1007E000002C85B836FD060F00C0002C95B800C05F
:1007F00011FF85B80795889437FD060F00C000C02B
:10080000002C85B80795889400C0002C95B800C0CE
:1008100010FF85B8E80FF11D889400C000C000C02B
:1008200085B800C000C0002C95B800C007FF85B88F
:1008300060817727889400C000C0002C85B86111C2
:10084000640F00C0002C95B800C006FF85B808F4FE
:100850006FEF889400C000C000C085B820FD760FFF
:1008600000C0002C95B800C005FF85B87795889426
:1008700021FD760F00C000C0002C85B877958894C4
:1008800000C0002C95B800C004FF85B822FD760F8B
:100890007795889400C000C0002C85B823FD760FA2
:1008A00000C0002C95B800C003FF85B877958894E8
:1008B00024FD760F00C000C0002C85B87795889481
:1008C00000C0002C95B800C002FF85B825FD760F4A
:1008D0007795889400C000C0002C85B826FD760F5F
:1008E00000C0002C95B800C001FF85B877958894AA
:1008F00027FD760F00C000C0002C85B8779588943E
:1009000000C0002C95B800C000FF85B800C000C032
:10091000002C00C000C00F87F62E788A698A612FEC
:100920001F2D85B8698A788AE52EF12E0F87262E2D
:1009300000C000C0002C60CE20EE31E0D5010E9446
:1009400002156130A0E47A0781059105B0F00091AD
:100950003E0510913F052091400530914105DC0195
:10096000CB014EE0B695A795979587954A95D1F717
:10097000800F911FA21FB31F0BC080913E05909165
:100980003F05A0914005B09141050196A11DB11D03
:1009900080933E0590933F05A0934005B093410599
:1009A00078940E94A210F601708B678761960FB64B
:1009B000F894DEBF0FBECDBFDF91CF911F910F9195
:1009C000FF90EF90DF90CF90BF90AF909F908F906F
:1009D0007F906F905F904F903F902F900895EF928F
:1009E000FF920F93E12CF12C00E00E9489020F91FD
:1009F000FF90EF900895EF92FF920F93E12CF12C6E
:100A000001E00E9489020F91FF90EF900895EF920C
:100A1000FF920F93CF93DF9300D0CDB7DEB7AB013A
:100A200019821A821B82E12CF12C00E09E012F5FBB
:100A30003F4FB9010E9489020F900F900F90DF91F4
:100A4000CF910F91FF90EF9008952F923F924F9288
:100A50005F926F927F928F929F92AF92BF92CF924E
:100A6000DF92EF92FF920F931F93CF93DF93CDB757
:100A7000DEB72C970FB6F894DEBF0FBECDBF8091C6
:100A80007802009180021091810220911002309131
:100A900011023A87298780FF4DC0E0917D02F091D5
:100AA0007E0280E090E00D5F1F4FA985BA858A170E
:100AB0009B0761F0228131814081D80113974C93CB
:100AC00011963C9311962C930196EDCF10928A02C9
:100AD00010928B0210928C0210928D02109286025C
:100AE000109287021092880210928902109282025C
:100AF00010928302109284021092850260E08DE0D1
:100B00002C960FB6F894DEBF0FBECDBFDF91CF910C
:100B10001F910F91FF90EF90DF90CF90BF90AF901B
:100B20009F908F907F906F905F904F903F902F900D
:100B30000C94DC11609174027091750280917602C0
:100B4000909177020E9489132EE333EC4EE25AE330
:100B50000E943F146B017C0160917F0270E080E095
:100B600090E00E9489139B01AC01C701B6010E946D
:100B70003F142B013C0120918A0230918B0240915D
:100B80008C0250918D020E9491124B015C01609386
:100B90008A0270938B0280938C0290938D02209135
:100BA0008602309187024091880250918902C301E8
:100BB000B2010E9491126B017C01609386027093D6
:100BC000870280938802909389022091820230915B
:100BD00083024091840250918502C301B2010E94B8
:100BE000911269837A838B839C83609382027093D2
:100BF000830280938402909385021E830D83212CAF
:100C0000312C18861F828F819885A985BA8520E0AE
:100C100030E040E85FE38A179B0709F488C0C5010C
:100C2000B4010E943B141816DCF4ED81FE81608152
:100C300070E080E090E00E948B132B013C01A50145
:100C400094010E943B1418165CF4A5019401C301A1
:100C5000B2010E9490120E945D13AD81BE816C931F
:100C600020E030E040E85FE3C701B6010E943B149A
:100C70001816FCF4F801E20DF31DFC87EB87618187
:100C800070E080E090E00E948B132B013C01A701F3
:100C900096010E943B14181664F4A7019601C30143
:100CA000B2010E9490120E945D13AB85BC85119623
:100CB0006C9320E030E040E85FE369817A818B81CA
:100CC0009C810E943B1418161CF5F801E20DF31DDF
:100CD000FC87EB87628170E080E090E00E948B13DC
:100CE0002B013C0129813A814B815C810E943B149C
:100CF000181674F429813A814B815C81C301B201D9
:100D00000E9490120E945D13AB85BC8512966C9375
:100D1000EF81F8853196F887EF83F3E02F0E311CD1
:100D20002D813E812D5F3F4F3E832D836CCFC501CA
:100D3000B4010E943B14181644F410928A021092D7
:100D40008B0210928C0210928D0220E030E040E87D
:100D50005FE3C701B6010E943B14181644F41092D9
:100D6000860210928702109288021092890220E077
:100D700030E040E85FE369817A818B819C810E9449
:100D80003B14181644F410928202109283021092BF
:100D90008402109285022C960FB6F894DEBF0FBE27
:100DA000CDBFDF91CF911F910F91FF90EF90DF901A
:100DB000CF90BF90AF909F908F907F906F905F90FB
:100DC0004F903F902F9008958091790280FD0E946E
:100DD00025058091790281FD0C94EF060895CF924C
:100DE000DF92EF92FF92CF93DF9380919702811170
:100DF00010C0E0918002F091810280818093940282
:100E000081818093950282818093960281E0809314
:100E100097028091780281FD10929302C091100296
:100E2000D091110260917F0270E080E090E00E941A
:100E300089139B01AC0160E070E080E89FE30E94B1
:100E4000F51220E030E040E752E40E943F1420E039
:100E500030E04AE754E40E943F146B017C01BE017C
:100E600080E090E00E9489139B01AC01C701B601AC
:100E70000E94F5122AE939E949E95EE30E943F142C
:100E80006B017C0160917402709175028091760211
:100E9000909177020E94891320918F0230919002E5
:100EA00040919102509192020E94911260938F02A0
:100EB000709390028093910290939202A701960101
:100EC0000E943B1487FD5BC010928F02109290022B
:100ED000109291021092920220918E02822F90E045
:100EE0002197309193028C179D0768F531112BC023
:100EF00081E0820F80938E022091800230918102E6
:100F000043E0849FC0011124FC013397E20FF31FDB
:100F10004091940240834091950241834091960212
:100F20004283A0917B02B0917C0212964C91129761
:100F300011965C9111976C91F901E80FF91F60838C
:100F4000518342831CC031111AC08C179D07B9F41C
:100F5000E0918002F091810283E0289FE00DF11D75
:100F600011248091940280838091950281838091E5
:100F70009602828310928E0281E080939302DF9129
:100F8000CF91FF90EF90DF90CF900895CF92DF92B6
:100F9000EF92FF920F931F93CF93DF93FC018B018E
:100FA000108211821282442381F1C0E0D0E0C42E6D
:100FB000D12CE12CF12CD801AC0FBD1F16962C9131
:100FC000169719966C912223E1F06623D1F030E058
:100FD00040E050E02F5F3F4F4F4F5F4F70E080E0A9
:100FE00090E06F5F7F4F8F4F9F4F0E94A2149B0135
:100FF000AC01C701B6010E94A214DF01AC0FBD1FF6
:101000008C932196C330D105B1F6CF01DF91CF91FA
:101010001F910F91FF90EF90DF90CF900895CF92A6
:10102000DF92EF92FF920F931F93CF93DF93EC0128
:101030006B018A017901121613061CF07A0100E097
:1010400010E0E881F9810480F581E02DCE01199549
:10105000C801880F991F800F911F8C0D9D1D9B83C8
:101060008A83FE86ED86CE01DF91CF911F910F918D
:10107000FF90EF90DF90CF900895CF92DF92EF92A4
:10108000FF92CF93DF93EC018091A3029091A40291
:101090009C012F5F3F4F3093A4022093A302861739
:1010A00097079CF10E9496109B01AC01E091A3026E
:1010B000F091A40288EE93E0E89FB001E99F700DE3
:1010C000F89F700D1124882777FD8095982FC09088
:1010D0009F02D090A002E090A102F090A2022C19F1
:1010E0003D094E095F090E94DA143A832983109260
:1010F000A4021092A3020E94961060939F02709324
:10110000A0028093A1029093A202DF91CF91FF9061
:10111000EF90DF90CF900895AF92BF92CF92DF9281
:10112000EF92FF920F931F93CF93DF9300D0CDB731
:10113000DEB77C01B62E0091A7021091A80201151E
:10114000110559F1D8011C96AC901C97F7018181CB
:1011500092818436910510F41C961C92D801ED9171
:10116000FC91C280D3804B2DB801CE0101960E9424
:10117000C607F80145855685628173819E012F5F00
:101180003F4FC801F6011995D8011C96AC921C97E7
:1011900014960D911C911597D2CF69E170E0C701AB
:1011A0000E943D080F900F900F90DF91CF911F91FB
:1011B0000F91FF90EF90DF90CF90BF90AF90089588
:1011C0008FEF8093A9021092AB021092AA020895A9
:1011D000FC01818D228D90E0805C9F4F821B9109E4
:1011E00060E470E00E94C6140895FC01918D828D28
:1011F000981731F0828DE80FF11D858D90E00895EC
:101200008FEF9FEF0895FC01918D828D981761F00B
:10121000828DDF01A80FB11D5D968C91928D9F5F2D
:101220009F73928F90E008958FEF9FEF08958EEB5C
:101230009AE0892B41F080E090E0892B21F00E9418
:10124000BE0A811125C08BE69BE0892B41F080E02E
:1012500090E0892B21F00E946B0B81111CC088E16A
:101260009CE0892B41F080E090E0892B21F00E94E6
:10127000180C811113C085EC9CE0892BA1F080E053
:1012800090E0892B81F00E94C50C81110AC008955D
:101290000E940000D8CF0E940000E1CF0E94000011
:1012A000EACF0C9400000895FC01848DDF01A80FA3
:1012B000B11DA35ABF4F2C91848D90E001968F737E
:1012C0009927848FA689B7892C93A089B1898C919D
:1012D00080648C93938D848D981306C00288F38963
:1012E000E02D80818F7D80830895CF93DF93EC0183
:1012F000888D8823C9F0EA89FB89808185FD05C036
:10130000A889B9898C9186FD0FC00FB607FCF5CF6F
:10131000808185FFF2CFA889B9898C9185FFEDCFB7
:10132000CE010E945409E7CFDF91CF910895CF926B
:10133000DF92FF920F931F93CF93DF931F92CDB74E
:10134000DEB76C01DC015B969C915B975C968C919F
:101350005C97981307C05096ED91FC91519780814E
:1013600085FD32C0F601038D10E00F5F1F4F0F7334
:101370001127F02EF601848DF81211C00FB607FC6C
:10138000F9CFD6015096ED91FC915197808185FF60
:10139000F1CFC60169830E9454096981EBCF838D27
:1013A000E80FF11DE35AFF4F6083D6015B960C9363
:1013B0005B975296ED91FC91539780818062808378
:1013C00081E058968C930DC0D6015696ED91FC9114
:1013D000579760835096ED91FC915197808180647E
:1013E000808381E090E00F90DF91CF911F910F916A
:1013F000FF90DF90CF900895BF92CF92DF92EF924F
:10140000FF92CF93DF93EC016A017B01B22EE88952
:10141000F98982E08083411581EE580761057105E5
:10142000A1F060E079E08DE390E0A70196010E94D1
:10143000DA142150310941095109569547953795DC
:101440002795211580E1380798F0E889F9891082FD
:1014500060E874E88EE190E0A70196010E94DA143A
:1014600021503109410951095695479537952795DE
:10147000EC85FD853083EE85FF852083188EEC8911
:10148000FD89B082EA89FB89808180618083EA8955
:10149000FB89808188608083EA89FB8980818068FC
:1014A0008083EA89FB8980818F7D8083DF91CF9162
:1014B000FF90EF90DF90CF90BF9008951F920F9212
:1014C0000FB60F9211240BB60F922F938F939F9309
:1014D000EF93FF93E091BC02F091BD028081E09117
:1014E000C202F091C30282FD12C090818091C502B8
:1014F0008F5F8F732091C602821751F0E091C50271
:10150000F0E0E455FD4F958F8093C50201C08081C6
:10151000FF91EF919F918F912F910F900BBE0F90A4
:101520000FBE0F901F9018951F920F920FB60F923B
:1015300011240BB60F922F933F934F935F936F93AA
:101540007F938F939F93AF93BF93EF93FF938CEA17
:1015500092E00E945409FF91EF91BF91AF919F914A
:101560008F917F916F915F914F913F912F910F904C
:101570000BBE0F900FBE0F901F9018958CEA92E053
:101580000E94E80821E0892B09F420E0822F0895C9
:101590001092AF021092AE0288EE93E0A0E0B0E0AD
:1015A0008093B0029093B102A093B202B093B302C1
:1015B00085E292E09093AD028093AC0285EC90E0DE
:1015C0009093B9028093B80284EC90E09093BB02B0
:1015D0008093BA0280EC90E09093BD028093BC02AD
:1015E00081EC90E09093BF028093BE0282EC90E089
:1015F0009093C1028093C00286EC90E09093C30266
:101600008093C2021092C5021092C6021092C702C5
:101610001092C80208951F920F920FB60F921124D4
:101620000BB60F922F938F939F93EF93FF93E091BD
:101630005903F0915A038081E0915F03F0916003B8
:1016400082FD12C09081809162038F5F8F73209121
:101650006303821751F0E0916203F0E0E75BFC4F17
:10166000958F8093620301C08081FF91EF919F91DC
:101670008F912F910F900BBE0F900FBE0F901F9068
:1016800018951F920F920FB60F9211240BB60F925E
:101690002F933F934F935F936F937F938F939F937A
:1016A000AF93BF93EF93FF9389E493E00E945409B3
:1016B000FF91EF91BF91AF919F918F917F916F912A
:1016C0005F914F913F912F910F900BBE0F900FBEE6
:1016D0000F901F90189589E493E00E94E80821E09C
:1016E000892B09F420E0822F089510924C03109268
:1016F0004B0388EE93E0A0E0B0E080934D0390931D
:101700004E03A0934F03B093500385E292E0909371
:101710004A03809349038DEC90E0909356038093A5
:1017200055038CEC90E0909358038093570388EC1A
:1017300090E090935A038093590389EC90E0909342
:101740005C0380935B038AEC90E090935E0380934C
:101750005D038EEC90E09093600380935F031092A2
:10176000620310926303109264031092650308955C
:101770001F920F920FB60F9211240BB60F922F9358
:101780008F939F93EF93FF93E091F603F091F7030C
:101790008081E091FC03F091FD0382FD12C09081F5
:1017A0008091FF038F5F8F7320910004821751F0A7
:1017B000E091FF03F0E0EA51FC4F958F8093FF0327
:1017C00001C08081FF91EF919F918F912F910F9098
:1017D0000BBE0F900FBE0F901F9018951F920F9287
:1017E0000FB60F9211240BB60F922F933F934F9386
:1017F0005F936F937F938F939F93AF93BF93EF9379
:10180000FF9386EE93E00E945409FF91EF91BF9100
:10181000AF919F918F917F916F915F914F913F9188
:101820002F910F900BBE0F900FBE0F901F90189529
:1018300086EE93E00E94E80821E0892B09F420E07D
:10184000822F08951092E9031092E80388EE93E046
:10185000A0E0B0E08093EA039093EB03A093EC0345
:10186000B093ED0385E292E09093E7038093E60363
:1018700085ED90E09093F3038093F20384ED90E084
:101880009093F5038093F40380ED90E09093F70339
:101890008093F60381ED90E09093F9038093F80331
:1018A00082ED90E09093FB038093FA0386ED90E045
:1018B0009093FD038093FC031092FF0310920004A9
:1018C000109201041092020408951F920F920FB615
:1018D0000F9211240BB60F922F938F939F93EF9338
:1018E000FF93E0919304F09194048081E091990436
:1018F000F0919A0482FD12C0908180919C048F5FC8
:101900008F7320919D04821751F0E0919C04F0E0C8
:10191000ED57FB4F958F80939C0401C08081FF9110
:10192000EF919F918F912F910F900BBE0F900FBE53
:101930000F901F9018951F920F920FB60F921124BF
:101940000BB60F922F933F934F935F936F937F93B9
:101950008F939F93AF93BF93EF93FF9383E894E0AC
:101960000E945409FF91EF91BF91AF919F918F9188
:101970007F916F915F914F913F912F910F900BBE8F
:101980000F900FBE0F901F90189583E894E00E946F
:10199000E80821E0892B09F420E0822F08951092B5
:1019A00086041092850488EE93E0A0E0B0E0809376
:1019B000870490938804A0938904B0938A0485E2F5
:1019C00092E0909384048093830485E391E0909364
:1019D000900480938F0484E391E090939204809329
:1019E000910480E391E0909394048093930481E3C5
:1019F00091E0909396048093950482E391E0909314
:101A000098048093970486E391E090939A048093DE
:101A1000990410929C0410929D0410929E041092BE
:101A20009F040895AF92BF92CF92DF92EF92FF9200
:101A30000F931F93CF93DF936C017B01C0E0D0E045
:101A400000E010E0F601EC0FFD1F4AE050E062817B
:101A5000C7010E94060E5C016EE2C7010E94990D4B
:101A60008A0D9B1D080F191F2196C330D10551F710
:101A70004AE050E0F6016581C7010E94060E800F22
:101A8000911FDF91CF911F910F91FF90EF90DF9009
:101A9000CF90BF90AF90089585E392E09093210599
:101AA00080932005109222051092230510922405A0
:101AB000109225050895CF92DF92EF92FF920F9337
:101AC0001F93CF93DF936C017A01EB01E60EF71EB3
:101AD00000E010E0CE15DF0561F06991D601ED91CF
:101AE000FC910190F081E02DC6011995080F191F96
:101AF000F1CFC801DF91CF911F910F91FF90EF902F
:101B0000DF90CF9008956115710581F0DB010D9094
:101B10000020E9F7AD0141505109461B570BDC018C
:101B2000ED91FC910280F381E02D199480E090E02A
:101B30000895DC01ED91FC910190F081E02D199464
:101B40008F929F92AF92BF92CF92DF92EF92FF92CD
:101B50000F931F93CF93DF93CDB7DEB7A1970FB647
:101B6000F894DEBF0FBECDBF7C01C42EE52FCB01A4
:101B7000D22E19A221E02D1510F02AE0D22E8E01CE
:101B80000F5D1F4F8D2C912CA12CB12C6C2D7E2F15
:101B9000A50194010E94DA148C2DD29E8019112483
:101BA000015011098A3014F4805D01C0895CF8018C
:101BB0008083211531054105510521F0C22EE32F07
:101BC000CA01E4CFB801C7010E94830DA1960FB6E8
:101BD000F894DEBF0FBECDBFDF91CF911F910F9163
:101BE000FF90EF90DF90CF90BF90AF909F908F903D
:101BF00008952115310541F4DC01ED91FC9101902E
:101C0000F081E02D642F19940C94A00D9A01462FB9
:101C100050E060E070E00C94F90D8230A9F028F4F7
:101C2000882349F0813051F00895843009F1E8F0BB
:101C3000853009F1089510926E00089580916F002B
:101C40008D7F80936F000895809170008D7F8093C9
:101C5000700081E08093B0008091B100887F846043
:101C60008093B1001092B30008951092710008950E
:101C7000109272000895109273000895CF93C82FA8
:101C8000809112028C1307C0E4EAF1E084919FEF87
:101C90009093120201C08FEF0E940D0E60E08C2F16
:101CA000CF910C94DC111F920F920FB60F9211245A
:101CB0000BB60F922F933F934F935F936F937F9346
:101CC0008F939F93AF93BF93EF93FF9380912905D9
:101CD00090912A05A0912B05B0912C05892B8A2B78
:101CE0008B2B51F190912605E0912705F091280565
:101CF0008081892780838091290590912A05A09170
:101D00002B05B0912C05181619061A061B06C4F4EB
:101D10008091290590912A05A0912B05B0912C0561
:101D20000197A109B1098093290590932A05A093F1
:101D30002B05B0932C0504C0809112020E943E0E28
:101D4000FF91EF91BF91AF919F918F917F916F9193
:101D50005F914F913F912F910F900BBE0F900FBE4F
:101D60000F901F9018951F920F920FB60F9211248B
:101D70000BB60F922F933F934F935F936F937F9385
:101D80008F939F93AF93BF93EF93FF938091310510
:101D900090913205892B29F0E0913105F0913205BF
:101DA0001995FF91EF91BF91AF919F918F917F9185
:101DB0006F915F914F913F912F910F900BBE0F90BC
:101DC0000FBE0F901F9018951F920F920FB60F9293
:101DD00011240BB60F922F933F934F935F936F9302
:101DE0007F938F939F93AF93BF93EF93FF938091D4
:101DF000330590913405892B29F0E0913305F0915A
:101E000034051995FF91EF91BF91AF919F918F91FB
:101E10007F916F915F914F913F912F910F900BBEEA
:101E20000F900FBE0F901F9018951F920F920FB634
:101E30000F9211240BB60F922F933F934F935F9302
:101E40006F937F938F939F93AF93BF93EF93FF9382
:101E50008091350590913605892B29F0E091350563
:101E6000F09136051995FF91EF91BF91AF919F9138
:101E70008F917F916F915F914F913F912F910F9033
:101E80000BBE0F900FBE0F901F9018951F920F92D0
:101E90000FB60F9211240BB60F922F933F934F93CF
:101EA0005F936F937F938F939F93AF93BF93EF93C2
:101EB000FF938091370590913805892B29F0E091A7
:101EC0003705F09138051995FF91EF91BF91AF91CA
:101ED0009F918F917F916F915F914F913F912F9142
:101EE0000F900BBE0F900FBE0F901F9018951F9272
:101EF0000F920FB60F9211240BB60F922F933F93B0
:101F00004F935F936F937F938F939F93AF93BF9301
:101F1000EF93FF9380912D0590912E05892B29F049
:101F2000E0912D05F0912E051995FF91EF91BF914C
:101F3000AF919F918F917F916F915F914F913F9161
:101F40002F910F900BBE0F900FBE0F901F90189502
:101F50001F920F920FB60F9211240BB60F922F9370
:101F60003F934F935F936F937F938F939F93AF9321
:101F7000BF93EF93FF9380912F0590913005892BAC
:101F800029F0E0912F05F09130051995FF91EF911F
:101F9000BF91AF919F918F917F916F915F914F9181
:101FA0003F912F910F900BBE0F900FBE0F901F907F
:101FB00018951F920F920FB60F9211240BB60F9225
:101FC0002F933F934F935F936F937F938F939F9341
:101FD000AF93BF93EF93FF938091390590913A05AA
:101FE000892B29F0E0913905F0913A051995FF9177
:101FF000EF91BF91AF919F918F917F916F915F9181
:102000004F913F912F910F900BBE0F900FBE0F90ED
:102010001F9018951F920F920FB60F9211240BB6B6
:102020000F922F933F934F935F936F937F938F9371
:102030009F93AF93BF93EF93FF9380913B05909154
:102040003C05892B29F0E0913B05F0913C05199561
:10205000FF91EF91BF91AF919F918F917F916F9180
:102060005F914F913F912F910F900BBE0F900FBE3C
:102070000F901F901895089508950E94ED100E94EA
:102080003C100E949101C7E1D9E00E9417022097FD
:10209000E1F30E941709F9CF1F920F920FB60F922A
:1020A00011242F933F938F939F93AF93BF9380916E
:1020B0003E0590913F05A0914005B09141053091BA
:1020C0003D0523E0230F2D3720F40196A11DB11DFE
:1020D00005C026E8230F0296A11DB11D20933D05E2
:1020E00080933E0590933F05A0934005B093410532
:1020F0008091420590914305A0914405B09145051A
:102100000196A11DB11D8093420590934305A093B4
:102110004405B0934505BF91AF919F918F913F9139
:102120002F910F900FBE0F901F9018952FB7F89416
:1021300060913E0570913F05809140059091410569
:102140002FBF08953FB7F8948091420590914305C1
:10215000A0914405B091450526B5A89B05C02F3F29
:1021600019F00196A11DB11D3FBF6627782F892F59
:102170009A2F620F711D811D911D42E0660F771F1E
:10218000881F991F4A95D1F70895CF92DF92EF9259
:10219000FF92CF93DF936B017C010E94A210EB01B1
:1021A000C114D104E104F10489F00E943B100E94A3
:1021B000A2106C1B7D0B683E734090F381E0C81A3F
:1021C000D108E108F108C851DC4FEACFDF91CF9187
:1021D000FF90EF90DF90CF900895789484B582605F
:1021E00084BD84B5816084BD85B5826085BD85B5BB
:1021F000816085BDEEE6F0E0808181608083E1E86A
:10220000F0E01082808182608083808181608083A1
:10221000E0E8F0E0808181608083E1EBF0E08081A4
:1022200084608083E0EBF0E0808181608083E1E97D
:10223000F0E0808182608083808181608083E0E93A
:10224000F0E0808181608083E1EAF0E0808182605B
:102250008083808181608083E0EAF0E0808181601A
:102260008083E1E2F1E0808182608083808181600F
:102270008083E0E2F1E0808181608083EAE7F0E042
:10228000808184608083808182608083808181609E
:1022900080838081806880831092C100089590E0DF
:1022A000FC013197E231F10508F04CC0EE58FF4FC8
:1022B0000C94FC14809180008F7703C08091800083
:1022C0008F7D80938000089580918000877FF9CF73
:1022D00084B58F7702C084B58F7D84BD08958091C9
:1022E000B0008F7703C08091B0008F7D8093B000E5
:1022F0000895809190008F7707C0809190008F7D26
:1023000003C080919000877F809390000895809112
:10231000A0008F7707C08091A0008F7D03C08091BF
:10232000A000877F8093A0000895809120018F777F
:1023300007C0809120018F7D03C080912001877F9D
:10234000809320010895CF93DF9390E0FC01E55145
:10235000FE4F2491FC01EF5CFD4F8491882349F1ED
:1023600090E0880F991FFC01EF56FD4FA591B491A5
:1023700089589D4FFC01C591D4919FB7611108C048
:10238000F8948C91209582238C93888182230AC0B3
:10239000623051F4F8948C91322F309583238C93D2
:1023A0008881822B888304C0F8948C91822B8C9333
:1023B0009FBFDF91CF9108950F931F93CF93DF932A
:1023C0001F92CDB7DEB7282F30E0F901EB55FE4F55
:1023D0008491F901E551FE4F1491F901EF5CFD4F35
:1023E00004910023C9F0882321F069830E944F11D2
:1023F0006981E02FF0E0EE0FFF1FE958FD4FA59136
:10240000B4919FB7F8948C91611103C0109581230A
:1024100001C0812B8C939FBF0F90DF91CF911F91B3
:102420000F91089561E08DE00E94A31126E040E83D
:1024300055E260E070E08CEA92E00C94FC09CF93E6
:10244000DF938CEA92E00E94E808181619060CF057
:1024500064C064E170E080E090E00E94C5108CEA06
:1024600092E00E940309811137C0C0917D02D09192
:102470007E028CEA92E00E9403098883C0917D026B
:10248000D0917E028CEA92E00E9403098983C09178
:102490007D02D0917E028CEA92E00E9403098A8339
:1024A000C0917B02D0917C028CEA92E00E940309E9
:1024B0008883C0917B02D0917C028CEA92E00E94DA
:1024C00003098983C0917B02D0917C028CEA92E05F
:1024D0000E9403098A8321C08CEA92E00E940309CA
:1024E00080937F028CEA92E00E9403098093780235
:1024F0008CEA92E00E940309D82F80E0C82FD09385
:102500007A02C09379028CEA92E00E9403098C2B34
:102510009D2B90937A0280937902DF91CF91089559
:102520005058BB27AA270ED06CC15DD130F062D1C4
:1025300020F031F49F3F11F41EF452C10EF4E095E7
:10254000E7FB48C1E92F6ED180F3BA176207730722
:102550008407950718F071F49EF586C10EF4E09596
:102560000B2EBA2FA02D0B01B90190010C01CA014D
:10257000A0011124FF27591B99F0593F50F4503EF8
:1025800068F11A16F040A22F232F342F4427585FEA
:10259000F3CF469537952795A795F0405395C9F702
:1025A0007EF41F16BA0B620B730B840BBAF09150BA
:1025B000A1F0FF0FBB1F661F771F881FC2F70EC059
:1025C000BA0F621F731F841F48F48795779567952C
:1025D000B795F7959E3F08F0B3CF9395880F08F015
:1025E0009927EE0F9795879508950CD00AC102D1CF
:1025F00040F0F9D030F021F45F3F19F0EBC05111F9
:1026000034C1EEC00FD198F39923C9F35523B1F328
:10261000951B550BBB27AA2762177307840738F051
:102620009F5F5F4F220F331F441FAA1FA9F333D0B0
:102630000E2E3AF0E0E830D091505040E695001C64
:10264000CAF729D0FE2F27D0660F771F881FBB1F20
:10265000261737074807AB07B0E809F0BB0B802DFA
:10266000BF01FF2793585F4F2AF09E3F510568F046
:10267000B1C0FBC05F3FECF3983EDCF386957795E5
:102680006795B795F7959F5FC9F7880F911D969548
:10269000879597F90895E1E0660F771F881FBB1FA4
:1026A000621773078407BA0720F0621B730B840B51
:1026B000BA0BEE1F88F7E0950895BCD088F09F57BD
:1026C00090F0B92F9927B751A0F0D1F0660F771F7E
:1026D000881F991F1AF0BA95C9F712C0B13081F05E
:1026E000C3D0B1E00895C0C0672F782F8827B85FA6
:1026F00039F0B93FCCF3869577956795B395D9F7BF
:102700003EF490958095709561957F4F8F4F9F4FC8
:102710000895E89409C097FB3EF4909580957095D4
:1027200061957F4F8F4F9F4F9923A9F0F92F96E91D
:10273000BB279395F695879577956795B795F11192
:10274000F8CFFAF4BB0F11F460FF1BC06F5F7F4F2F
:102750008F4F9F4F16C0882311F096E911C0772341
:1027600021F09EE8872F762F05C0662371F096E84A
:10277000862F70E060E02AF09A95660F771F881F19
:10278000DAF7880F9695879597F90895990F0008BD
:10279000550FAA0BE0E8FEEF16161706E807F90733
:1027A000C0F012161306E407F50798F0621B730BCE
:1027B000840B950B39F40A2661F0232B242B252B4F
:1027C00021F408950A2609F4A140A6958FEF811DF2
:1027D000811D089597F99F6780E870E060E0089593
:1027E0009FEF80EC089500240A9416161706180629
:1027F0000906089500240A94121613061406050605
:102800000895092E0394000C11F4882352F0BB0F95
:1028100040F4BF2B11F460FF04C06F5F7F4F8F4FF8
:102820009F4F089557FD9058440F551F59F05F3F33
:1028300071F04795880F97FB991F61F09F3F79F0E2
:1028400087950895121613061406551FF2CF469564
:10285000F1DF08C0161617061806991FF1CF8695E6
:102860007105610508940895E894BB2766277727CA
:10287000CB0197F908958ADF08F48FEF08950BD004
:10288000C0CFB1DF28F0B6DF18F0952309F0A2CF52
:10289000A7CF1124EACFC6DFA0F3959FD1F3950F00
:1028A00050E0551F629FF001729FBB27F00DB11DD4
:1028B000639FAA27F00DB11DAA1F649F6627B00D64
:1028C000A11D661F829F2227B00DA11D621F739F4D
:1028D000B00DA11D621F839FA00D611D221F749F5B
:1028E0003327A00D611D231F849F600D211D822FA2
:1028F000762F6A2F11249F5750408AF0E1F08823E9
:102900004AF0EE0FFF1FBB1F661F771F881F9150F5
:102910005040A9F79E3F510570F05CCFA6CF5F3FB6
:10292000ECF3983EDCF3869577956795B795F79528
:10293000E7959F5FC1F7FE2B880F911D96958795B0
:1029400097F90895DB018F939F930E940915BF911A
:10295000AF91A29F800D911DA39F900DB29F900DEE
:1029600011240895AA1BBB1B51E107C0AA1FBB1F5E
:10297000A617B70710F0A61BB70B881F991F5A950B
:10298000A9F780959095BC01CD01089597FB072E7E
:1029900016F4009407D077FD09D00E94B21407FC0A
:1029A00005D03EF4909581959F4F0895709561955F
:1029B0007F4F0895A1E21A2EAA1BBB1BFD010DC07B
:1029C000AA1FBB1FEE1FFF1FA217B307E407F507DF
:1029D00020F0A21BB30BE40BF50B661F771F881FBB
:1029E000991F1A9469F760957095809590959B0151
:1029F000AC01BD01CF010895EE0FFF1F0590F491CA
:102A0000E02D19940E941815B7FF0895821B930BAF
:102A100008950E941815A59F900DB49F900DA49F36
:102A2000800D911D112408950790F691E02D1994C1
:102A3000A29FB001B39FC001A39F700D811D1124FF
:102A4000911DB29F700D811D1124911D0895F89460
:022A5000FFCFB6
:102A52000000460580000100000064000000FF0045
:102A62000A00FF00000000EF04FB048F010705A924
:102A7200020000000097095B0DE8080309F50875DC
:082A82000900000000120D0024
:00000001FF
