:100000000C944F010C947D0B0C94AE0B0C94DF0BF5
:100010000C94100C0C94410C0C94720C0C94A30CCA
:100020000C94D40C0C9480010C9480010C948001ED
:100030000C9480010C941D0B0C9480010C94800195
:100040000C9480010C9480010C9480010C9480012C
:100050000C9480010C9480010C9480010C94160D7A
:100060000C9480010C9428070C945E070C9480017A
:100070000C9480010C9480010C9480010C948001FC
:100080000C9480010C9480010C9480010C948001EC
:100090000C94D5070C940B080C9480010C948001EF
:1000A0000C9480010C9480010C9480010C948001CC
:1000B0000C9480010C9480010C9480010C948001BC
:1000C0000C9480010C9480010C9480010C948208A3
:1000D0000C94B8080C9480010C942F090C946509B9
:1000E0000C948001320E350E240E280E2E0E6C0E4E
:1000F000390E3D0E430E470E4B0E510E550E590E46
:100100006C0E5F0E630E670E0C942E0E0C942F0671
:100110000C94280E0C9443060C94250A0C94C804E5
:100120000C94470E0C948F090C94EC080C943D0E23
:100130000C9492070C94590E0C94550E0C94820159
:100140000C94160A0C94320E0C94390E0C943F0841
:100150000C9414060C94C3060C94BC040C94210655
:100160000C94510E0C945F0E0C944B0E0C943508AD
:100170000C94240E0C9499090C94430E0C94E208F0
:100180000C9488070C94DC090C946C0E0C94350EBE
:100190000C94D4040C94A1060C94630E0C940C06DD
:1001A0000C94670E0200000A0B02090C0D0E0807E2
:1001B0000304010000000000000000000000000037
:1001C000000000000000000000000000000000002F
:1001D00000121110000000000000000000000000EC
:1001E00000000000000000000000000102102020BC
:1001F000080810204010204080020102010804027B
:1002000001010204081020408080402010080402F0
:100210000180040201804020100804020108040249
:10022000010102040810204080010204081020404F
:100230008005050505070508080808020202020AEC
:100240000A08080404040401010101010101010379
:1002500003030303030303040707070C0C0C0C0C34
:100260000C0C0C0202020206060606060606060B27
:100270000B0B0B0B0B0B0B00002200250028002B97
:10028000002E003100340002010000050108010BBE
:1002900001000C0692073F08EC089909160A112480
:1002A0001FBECFEFD1E2DEBFCDBF00E00CBF12E03A
:1002B000A0E0B2E0E4E5FEE100E00BBF02C0079081
:1002C0000D92A033B107D9F724E0A0E3B2E001C05A
:1002D0001D92A43FB207E1F712E0CEE9D2E000E0C0
:1002E00006C022970109FE010BBF0E94150FC239FB
:1002F000D10780E00807A9F70E94070D0C94280F8A
:100300000C9400006D9A089580914202811145C0BD
:1003100010923402109233028FEF80933702809351
:1003200038028093390280933A0280933B02809393
:100330003C0281E080933D0210923F0210923E0207
:100340001092360210923502809155029091560219
:10035000892B31F481E392E0909356028093550209
:10036000E0915302F0915402309721F081E392E042
:100370009583848381E392E09093540280935302A7
:1003800010924102109240028FE092E0909332026C
:100390008093310281E08093420220E030E041E02E
:1003A00050E06AE472E081E392E00C943B05CF9266
:1003B000DF92EF92FF920F931F93CF93DF938AE424
:1003C000C82E82E0D82E8FEFF60180839BE4E92EC1
:1003D00092E0F92EF70110820CE412E0F80110828D
:1003E000C0911702D09118026881CE010E94B80511
:1003F00064EF71E080E090E00E948F0DF6011082C2
:10040000F7011082F80110826881CE010E94B805C0
:1004100064EF71E080E090E0DF91CF911F910F9148
:10042000FF90EF90DF90CF900C948F0DFF920F9381
:100430001F93CF93DF93EC01809130028F5F982F51
:1004400097709093300280FD02C080E001C080E888
:1004500091FD8064947009F0806220E1F22EF80E24
:1004600020E030E000E011E0FE01E20FF31F6285C2
:10047000662331F070E0C8010E94C70E6F5F01C0B3
:1004800060E067834F2D469F412D112444836623EE
:1004900011F0615067832F5F3F4F2330310521F703
:1004A000DF91CF911F910F91FF9008952F923F926E
:1004B0004F925F926F927F928F929F92AF92BF9274
:1004C000CF92DF92EF92FF920F931F93CF93DF9320
:1004D000CDB7DEB761970FB6F894DEBF0FBECDBFC4
:1004E0006C015A01F901DC011C968C917A836983B5
:1004F0005C834B8390819B8791819C8792819D87B0
:10050000813029F4CE0101960E94160206C01A8697
:10051000198618861F821E821D8289819A818E0DFE
:10052000911D9A838983002319F083E08E0D01C009
:1005300080E08E870E946C0DF60127853089621B52
:10054000730B62337105B0F3F894E981FA818EB1CF
:10055000759858848D81452D481B4D837081772374
:1005600021F0740F08F47FEF01C070E02B85729FBB
:10057000712D11248E85AB81BC819C853D856E805B
:10058000688A7F80798A39844A84E12C1F86212CED
:10059000F12C3D0161E0661A7108AB2B09F499C199
:1005A000052D041B402F132D5889151B188B642D06
:1005B0000989601B698B9EB0192D1062912E8EB037
:1005C000582D5F7D852ED301122D0F857888662EDC
:1005D0006F2D5E2D9EB800C077FF8EB86181112708
:1005E000889400C000C0002C8EB86111670D00C057
:1005F000002C9EB800C076FF8EB808F46FEF889488
:1006000000C000C000C08EB890FD160F00C0002CC6
:100610009EB800C075FF8EB81795889491FD160F8F
:1006200000C000C0002C8EB81795889400C0002C24
:100630009EB800C074FF8EB892FD160F179588946F
:1006400000C000C0002C8EB893FD160F00C0002C17
:100650009EB800C073FF8EB81795889494FD160F4E
:1006600000C000C0002C8EB81795889400C0002CE4
:100670009EB800C072FF8EB895FD160F179588942E
:1006800000C000C0002C8EB896FD160F00C0002CD4
:100690009EB800C071FF8EB81795889497FD160F0D
:1006A00000C000C0002C8EB81795889400C0002CA4
:1006B0009EB800C070FF8EB800C000C0002C00C003
:1006C00000C08EB800C000C0002C9EB800C017FF4C
:1006D0008EB862810027889400C000C0002C8EB8BC
:1006E0006111660D00C0002C9EB800C016FF8EB8C8
:1006F00008F46FEF889400C000C000C08EB830FDD1
:10070000060F00C0002C9EB800C015FF8EB80795DC
:10071000889431FD060F00C000C0002C8EB80795EC
:10072000889400C0002C9EB800C014FF8EB832FD23
:10073000060F0795889400C000C0002C8EB833FDCA
:10074000060F00C0002C9EB800C013FF8EB807959E
:10075000889434FD060F00C000C0002C8EB80795A9
:10076000889400C0002C9EB800C012FF8EB835FDE2
:10077000060F0795889400C000C0002C8EB836FD87
:10078000060F00C0002C9EB800C011FF8EB8079560
:10079000889437FD060F00C000C0002C8EB8079566
:1007A000889400C0002C9EB800C010FF8EB8E80FDF
:1007B000F11D889400C000C000C08EB800C000C009
:1007C000002C9EB800C007FF8EB860817727889400
:1007D00000C000C0002C8EB86111640F00C0002C56
:1007E0009EB800C006FF8EB808F46FEF889400C072
:1007F00000C000C08EB820FD760F00C0002C9EB84F
:1008000000C005FF8EB87795889421FD760F00C053
:1008100000C0002C8EB87795889400C0002C9EB83C
:1008200000C004FF8EB822FD760F7795889400C033
:1008300000C0002C8EB823FD760F00C0002C9EB89F
:1008400000C003FF8EB87795889424FD760F00C012
:1008500000C0002C8EB87795889400C0002C9EB8FC
:1008600000C002FF8EB825FD760F7795889400C0F2
:1008700000C0002C8EB826FD760F00C0002C9EB85C
:1008800000C001FF8EB87795889427FD760F00C0D1
:1008900000C0002C8EB87795889400C0002C9EB8BC
:1008A00000C000FF8EB800C000C0002C00C000C017
:1008B0000F87F62E788A698A612F1F2D8EB8698A74
:1008C000788AE52EF12E0F87262E00C000C0002C5E
:1008D00060CE20EE31E0D5010E94030F6130A0E42C
:1008E0007A0781059105B0F00091EC041091ED04B8
:1008F0002091EE043091EF04DC01CB014EE0B6957F
:10090000A795979587954A95D1F7800F911FA21FBC
:10091000B31F0BC08091EC049091ED04A091EE0404
:10092000B091EF040196A11DB11D8093EC0490934A
:10093000ED04A093EE04B093EF0478940E946C0D44
:10094000F601708B678761960FB6F894DEBF0FBE15
:10095000CDBFDF91CF911F910F91FF90EF90DF906E
:10096000CF90BF90AF909F908F907F906F905F904F
:100970004F903F902F900895EF92FF920F93E12CAC
:10098000F12C00E00E9456020F91FF90EF90089525
:10099000EF92FF920F93E12CF12C01E00E9456029E
:1009A0000F91FF90EF900895EF92FF920F93CF93E6
:1009B000DF9300D0CDB7DEB7AB0119821A821B825C
:1009C000E12CF12C00E09E012F5F3F4FB9010E9406
:1009D00056020F900F900F90DF91CF910F91FF90E3
:1009E000EF900895CF92DF92EF92FF920F931F93B3
:1009F000CF93DF93FC018B0110821182128244237A
:100A000081F1C0E0D0E0C42ED12CE12CF12CD80132
:100A1000AC0FBD1F16962C91169719966C91222338
:100A2000E1F06623D1F030E040E050E02F5F3F4F2F
:100A30004F4F5F4F70E080E090E06F5F7F4F8F4FD0
:100A40009F4F0E94A30E9B01AC01C701B6010E94FB
:100A5000A30EDF01AC0FBD1F8C932196C330D105CF
:100A6000B1F6CF01DF91CF911F910F91FF90EF90E1
:100A7000DF90CF900895CF92DF92EF92FF920F9385
:100A80001F93CF93DF93EC016B018A01790112165A
:100A900013061CF07A0100E010E0E881F98104807F
:100AA000F581E02DCE011995C801880F991F800F9F
:100AB000911F8C0D9D1D9B838A83FE86ED86CE0142
:100AC000DF91CF911F910F91FF90EF90DF90CF902A
:100AD0000895CF92DF92EF92FF92CF93DF93EC01D4
:100AE00080915102909152029C012F5F3F4F3093B1
:100AF000520220935102861797079CF10E94600DC5
:100B00009B01AC01E0915102F091520288EE93E01A
:100B1000E89FB001E99F700DF89F700D11248827A0
:100B200077FD8095982FC0904D02D0904E02E090B6
:100B30004F02F09050022C193D094E095F090E94A6
:100B4000DB0E3A83298310925202109251020E94C6
:100B5000600D60934D0270934E0280934F0290930C
:100B60005002DF91CF91FF90EF90DF90CF900895EA
:100B7000AF92BF92CF92DF92EF92FF920F931F93AB
:100B8000CF93DF9300D0CDB7DEB77C01B62E0091B6
:100B90005502109156020115110559F1D8011C9604
:100BA000AC901C97F701818192818436910510F4F5
:100BB0001C961C92D801ED91FC91C280D3804B2DE4
:100BC000B801CE0101960E94F204F80145855685D0
:100BD000628173819E012F5F3F4FC801F601199515
:100BE000D8011C96AC921C9714960D911C911597E8
:100BF000D2CF69E170E0C7010E9469050F900F90A4
:100C00000F90DF91CF911F910F91FF90EF90DF90A8
:100C1000CF90BF90AF9008958FEF809357021092BE
:100C20005902109258020895FC01818D228D90E0A6
:100C3000805C9F4F821B910960E470E00E94C70EA8
:100C40000895FC01918D828D981731F0828DE80F07
:100C5000F11D858D90E008958FEF9FEF0895FC01C1
:100C6000918D828D981761F0828DDF01A80FB11DE3
:100C70005D968C91928D9F5F9F73928F90E0089507
:100C80008FEF9FEF089588E897E0892B41F080E08F
:100C900090E0892B21F00E948807811125C085E30F
:100CA00098E0892B41F080E090E0892B21F00E94B0
:100CB000350881111CC082EE98E0892B41F080E05C
:100CC00090E0892B21F00E94E208811113C08FE887
:100CD00099E0892BA1F080E090E0892B81F00E94BF
:100CE0008F0981110AC008950E940000D8CF0E9488
:100CF0000000E1CF0E940000EACF0C9400000895AC
:100D0000FC01848DDF01A80FB11DA35ABF4F2C91A8
:100D1000848D90E001968F739927848FA689B78977
:100D20002C93A089B1898C9180648C93938D848D50
:100D3000981306C00288F389E02D80818F7D80831F
:100D40000895CF93DF93EC01888D8823C9F0EA8959
:100D5000FB89808185FD05C0A889B9898C9186FDB4
:100D60000FC00FB607FCF5CF808185FFF2CFA889B1
:100D7000B9898C9185FFEDCFCE010E948006E7CF27
:100D8000DF91CF910895CF92DF92FF920F931F933F
:100D9000CF93DF931F92CDB7DEB76C01DC015B967A
:100DA0009C915B975C968C915C97981307C05096CA
:100DB000ED91FC915197808185FD32C0F601038D44
:100DC00010E00F5F1F4F0F731127F02EF601848D77
:100DD000F81211C00FB607FCF9CFD6015096ED916D
:100DE000FC915197808185FFF1CFC60169830E94F4
:100DF00080066981EBCF838DE80FF11DE35AFF4F29
:100E00006083D6015B960C935B975296ED91FC91B3
:100E1000539780818062808381E058968C930DC0C7
:100E2000D6015696ED91FC91579760835096ED91BF
:100E3000FC91519780818064808381E090E00F90E5
:100E4000DF91CF911F910F91FF90DF90CF90089588
:100E50001F920F920FB60F9211240BB60F922F9381
:100E60008F939F93EF93FF93E0916A02F0916B024F
:100E70008081E0917002F091710282FD12C0908138
:100E8000809173028F5F8F7320917402821751F0EB
:100E9000E0917302F0E0E65AFD4F958F8093730264
:100EA00001C08081FF91EF919F918F912F910F90C1
:100EB0000BBE0F900FBE0F901F9018951F920F92B0
:100EC0000FB60F9211240BB60F922F933F934F93AF
:100ED0005F936F937F938F939F93AF93BF93EF93A2
:100EE000FF938AE592E00E948006FF91EF91BF9107
:100EF000AF919F918F917F916F915F914F913F91B2
:100F00002F910F900BBE0F900FBE0F901F90189552
:100F10008AE592E00E94140621E0892B09F420E082
:100F2000822F089510925D0210925C0288EE93E089
:100F3000A0E0B0E080935E0290935F02A093600215
:100F4000B09361028DE192E090935B0280935A022C
:100F500085EC90E0909367028093660284EC90E0C9
:100F6000909369028093680280EC90E090936B020A
:100F700080936A0281EC90E090936D0280936C0202
:100F800082EC90E090936F0280936E0286EC90E08A
:100F90009093710280937002109273021092740207
:100FA000109275021092760208951F920F920FB65A
:100FB0000F9211240BB60F922F938F939F93EF9361
:100FC000FF93E0910703F09108038081E0910D0306
:100FD000F0910E0382FD12C09081809110038F5F0B
:100FE0008F7320911103821751F0E0911003F0E00C
:100FF000E950FD4F958F8093100301C08081FF91D0
:10100000EF919F918F912F910F900BBE0F900FBE7C
:101010000F901F9018951F920F920FB60F921124E8
:101020000BB60F922F933F934F935F936F937F93E2
:101030008F939F93AF93BF93EF93FF9387EF92E0CC
:101040000E948006FF91EF91BF91AF919F918F9188
:101050007F916F915F914F913F912F910F900BBEB8
:101060000F900FBE0F901F90189587EF92E00E948F
:10107000140621E0892B09F420E0822F08951092B4
:10108000FA021092F90288EE93E0A0E0B0E08093BB
:10109000FB029093FC02A093FD02B093FE028DE14F
:1010A00092E09093F8028093F7028DEC90E0909399
:1010B0000403809303038CEC90E0909306038093E9
:1010C000050388EC90E0909308038093070389EC74
:1010D00090E090930A03809309038AEC90E0909348
:1010E0000C0380930B038EEC90E090930E0380939F
:1010F0000D0310921003109211031092120310921C
:10110000130308951F920F920FB60F9211240BB67E
:101110000F922F938F939F93EF93FF93E091A403EC
:10112000F091A5038081E091AA03F091AB0382FDC9
:1011300012C090818091AD038F5F8F732091AE03B9
:10114000821751F0E091AD03F0E0EC56FC4F958F23
:101150008093AD0301C08081FF91EF919F918F91AA
:101160002F910F900BBE0F900FBE0F901F901895F0
:101170001F920F920FB60F9211240BB60F922F935E
:101180003F934F935F936F937F938F939F93AF930F
:10119000BF93EF93FF9384E993E00E948006FF9151
:1011A000EF91BF91AF919F918F917F916F915F91DF
:1011B0004F913F912F910F900BBE0F900FBE0F904C
:1011C0001F90189584E993E00E94140621E0892B72
:1011D00009F420E0822F089510929703109296034D
:1011E00088EE93E0A0E0B0E0809398039093990399
:1011F000A0939A03B0939B038DE192E090939503A3
:101200008093940385ED90E09093A1038093A003D5
:1012100084ED90E09093A3038093A20380ED90E08F
:101220009093A5038093A40381ED90E09093A7038E
:101230008093A60382ED90E09093A9038093A80386
:1012400086ED90E09093AB038093AA031092AD03D8
:101250001092AE031092AF031092B00308951F9244
:101260000F920FB60F9211240BB60F922F938F93FC
:101270009F93EF93FF93E0914104F09142048081AA
:10128000E0914704F091480482FD12C09081809162
:101290004A048F5F8F7320914B04821751F0E091C5
:1012A0004A04F0E0EF5CFB4F958F80934A0401C045
:1012B0008081FF91EF919F918F912F910F900BBEA5
:1012C0000F900FBE0F901F9018951F920F920FB6A0
:1012D0000F9211240BB60F922F933F934F935F936E
:1012E0006F937F938F939F93AF93BF93EF93FF93EE
:1012F00081E394E00E948006FF91EF91BF91AF914E
:101300009F918F917F916F915F914F913F912F911D
:101310000F900BBE0F900FBE0F901F90189581E39A
:1013200094E00E94140621E0892B09F420E0822F2A
:101330000895109234041092330488EE93E0A0E0F4
:10134000B0E08093350490933604A0933704B093B3
:1013500038048DE192E0909332048093310485E368
:1013600091E090933E0480933D0484E391E0909358
:10137000400480933F0480E391E090934204809383
:10138000410481E391E0909344048093430482E319
:1013900091E0909346048093450486E391E0909316
:1013A00048048093470410924A0410924B04109210
:1013B0004C0410924D040895AF92BF92CF92DF92E9
:1013C000EF92FF920F931F93CF93DF936C017B01FA
:1013D000C0E0D0E000E010E0F601EC0FFD1F4AE0B5
:1013E00050E06281C7010E94D00A5C016EE2C70131
:1013F0000E94630A8A0D9B1D080F191F2196C33096
:10140000D10551F74AE050E0F6016581C7010E941D
:10141000D00A800F911FDF91CF911F910F91FF9004
:10142000EF90DF90CF90BF90AF9008958DE292E063
:101430009093CF048093CE041092D0041092D104E4
:101440001092D2041092D3040895CF92DF92EF92BB
:10145000FF920F931F93CF93DF936C017A01EB01FF
:10146000E60EF71E00E010E0CE15DF0561F0699191
:10147000D601ED91FC910190F081E02DC601199506
:10148000080F191FF1CFC801DF91CF911F910F9164
:10149000FF90EF90DF90CF9008956115710581F076
:1014A000DB010D900020E9F7AD0141505109461BC9
:1014B000570BDC01ED91FC910280F381E02D199432
:1014C00080E090E00895DC01ED91FC910190F081C5
:1014D000E02D19948F929F92AF92BF92CF92DF929C
:1014E000EF92FF920F931F93CF93DF93CDB7DEB7A9
:1014F000A1970FB6F894DEBF0FBECDBF7C01C42EFE
:10150000E52FCB01D22E19A221E02D1510F02AE0F3
:10151000D22E8E010F5D1F4F8D2C912CA12CB12C42
:101520006C2D7E2FA50194010E94DB0E8C2DD29E86
:1015300080191124015011098A3014F4805D01C012
:10154000895CF8018083211531054105510521F0A1
:10155000C22EE32FCA01E4CFB801C7010E944D0A91
:10156000A1960FB6F894DEBF0FBECDBFDF91CF912D
:101570001F910F91FF90EF90DF90CF90BF90AF90B1
:101580009F908F9008952115310541F4DC01ED9174
:10159000FC910190F081E02D642F19940C946A0A5B
:1015A0009A01462F50E060E070E00C94C30A82304C
:1015B000A9F028F4882349F0813051F0089584304F
:1015C00009F1E8F0853009F1089510926E00089550
:1015D00080916F008D7F80936F00089580917000DF
:1015E0008D7F8093700081E08093B0008091B10086
:1015F000887F84608093B1001092B30008951092A8
:101600007100089510927200089510927300089569
:10161000CF93C82F80910A028C1307C0E4EAF1E04F
:1016200084919FEF90930A0201C08FEF0E94D70A26
:1016300060E08C2FCF910C946D0E1F920F920FB61D
:101640000F9211240BB60F922F933F934F935F93FA
:101650006F937F938F939F93AF93BF93EF93FF937A
:101660008091D7049091D804A091D904B091DA0464
:10167000892B8A2B8B2B51F19091D404E091D504C6
:10168000F091D6048081892780838091D70490913E
:10169000D804A091D904B091DA04181619061A06D4
:1016A0001B06C4F48091D7049091D804A091D9046A
:1016B000B091DA040197A109B1098093D7049093FE
:1016C000D804A093D904B093DA0404C080910A022C
:1016D0000E94080BFF91EF91BF91AF919F918F9165
:1016E0007F916F915F914F913F912F910F900BBE22
:1016F0000F900FBE0F901F9018951F920F920FB66C
:101700000F9211240BB60F922F933F934F935F9339
:101710006F937F938F939F93AF93BF93EF93FF93B9
:101720008091DF049091E004892B29F0E091DF049F
:10173000F091E0041995FF91EF91BF91AF919F91C6
:101740008F917F916F915F914F913F912F910F906A
:101750000BBE0F900FBE0F901F9018951F920F9207
:101760000FB60F9211240BB60F922F933F934F9306
:101770005F936F937F938F939F93AF93BF93EF93F9
:10178000FF938091E1049091E204892B29F0E0918C
:10179000E104F091E2041995FF91EF91BF91AF91AF
:1017A0009F918F917F916F915F914F913F912F9179
:1017B0000F900BBE0F900FBE0F901F9018951F92A9
:1017C0000F920FB60F9211240BB60F922F933F93E7
:1017D0004F935F936F937F938F939F93AF93BF9339
:1017E000EF93FF938091E3049091E404892B29F017
:1017F000E091E304F091E4041995FF91EF91BF911A
:10180000AF919F918F917F916F915F914F913F9198
:101810002F910F900BBE0F900FBE0F901F90189539
:101820001F920F920FB60F9211240BB60F922F93A7
:101830003F934F935F936F937F938F939F93AF9358
:10184000BF93EF93FF938091E5049091E604892B79
:1018500029F0E091E504F091E6041995FF91EF91EC
:10186000BF91AF919F918F917F916F915F914F91B8
:101870003F912F910F900BBE0F900FBE0F901F90B6
:1018800018951F920F920FB60F9211240BB60F925C
:101890002F933F934F935F936F937F938F939F9378
:1018A000AF93BF93EF93FF938091DB049091DC049F
:1018B000892B29F0E091DB04F091DC041995FF916C
:1018C000EF91BF91AF919F918F917F916F915F91B8
:1018D0004F913F912F910F900BBE0F900FBE0F9025
:1018E0001F9018951F920F920FB60F9211240BB6EE
:1018F0000F922F933F934F935F936F937F938F93A9
:101900009F93AF93BF93EF93FF938091DD049091EA
:10191000DE04892B29F0E091DD04F091DE041995B5
:10192000FF91EF91BF91AF919F918F917F916F91B7
:101930005F914F913F912F910F900BBE0F900FBE73
:101940000F901F9018951F920F920FB60F921124AF
:101950000BB60F922F933F934F935F936F937F93A9
:101960008F939F93AF93BF93EF93FF938091E7047F
:101970009091E804892B29F0E091E704F091E804C4
:101980001995FF91EF91BF91AF919F918F917F91A9
:101990006F915F914F913F912F910F900BBE0F90E0
:1019A0000FBE0F901F9018951F920F920FB60F92B7
:1019B00011240BB60F922F933F934F935F936F9326
:1019C0007F938F939F93AF93BF93EF93FF938091F8
:1019D000E9049091EA04892B29F0E091E904F0915F
:1019E000EA041995FF91EF91BF91AF919F918F916B
:1019F0007F916F915F914F913F912F910F900BBE0F
:101A00000F900FBE0F901F901895089508950E9493
:101A1000B70D0E94060D0E948401C3E4D6E00E9427
:101A2000D7012097E1F30E944306F9CF1F920F924E
:101A30000FB60F9211242F933F938F939F93AF93E1
:101A4000BF938091EC049091ED04A091EE04B091CD
:101A5000EF043091EB0423E0230F2D3720F401969F
:101A6000A11DB11D05C026E8230F0296A11DB11DC1
:101A70002093EB048093EC049093ED04A093EE0488
:101A8000B093EF048091F0049091F104A091F204DE
:101A9000B091F3040196A11DB11D8093F0049093C1
:101AA000F104A093F204B093F304BF91AF919F911E
:101AB0008F913F912F910F900FBE0F901F9018950F
:101AC0002FB7F8946091EC047091ED048091EE04CE
:101AD0009091EF042FBF08953FB7F8948091F004E0
:101AE0009091F104A091F204B091F30426B5A89B63
:101AF00005C02F3F19F00196A11DB11D3FBF6627FC
:101B0000782F892F9A2F620F711D811D911D42E040
:101B1000660F771F881F991F4A95D1F70895CF92B6
:101B2000DF92EF92FF92CF93DF936B017C010E94D3
:101B30006C0DEB01C114D104E104F10489F00E94A1
:101B4000050D0E946C0D6C1B7D0B683E734090F37D
:101B500081E0C81AD108E108F108C851DC4FEACF8A
:101B6000DF91CF91FF90EF90DF90CF900895789420
:101B700084B5826084BD84B5816084BD85B5826092
:101B800085BD85B5816085BDEEE6F0E08081816030
:101B90008083E1E8F0E01082808182608083808130
:101BA00081608083E0E8F0E0808181608083E1EB08
:101BB000F0E0808184608083E0EBF0E080818160F0
:101BC0008083E1E9F0E080818260808380818160B0
:101BD0008083E0E9F0E0808181608083E1EAF0E0E9
:101BE000808182608083808181608083E0EAF0E090
:101BF000808181608083E1E2F1E080818260808386
:101C0000808181608083E0E2F1E080818160808377
:101C1000EAE7F0E080818460808380818260808355
:101C20008081816080838081806880831092C10080
:101C3000089590E0FC013197E231F10508F04CC0C5
:101C4000EE58FF4F0C94FD0E809180008F7703C0FB
:101C5000809180008F7D8093800008958091800026
:101C6000877FF9CF84B58F7702C084B58F7D84BD1F
:101C700008958091B0008F7703C08091B0008F7D70
:101C80008093B0000895809190008F7707C0809175
:101C900090008F7D03C080919000877F809390009B
:101CA00008958091A0008F7707C08091A0008F7D5C
:101CB00003C08091A000877F8093A0000895809149
:101CC00020018F7707C0809120018F7D03C0809114
:101CD0002001877F8093200108950F931F93CF9356
:101CE000DF931F92CDB7DEB7282F30E0F901EB5517
:101CF000FE4F8491F901E551FE4F1491F901EF5C1B
:101D0000FD4F04910023C9F0882321F069830E94CC
:101D1000190E6981E02FF0E0EE0FFF1FE958FD4F2B
:101D2000A591B4919FB7F8948C91611103C010955F
:101D3000812301C0812B8C939FBF0F90DF91CF91A6
:101D40001F910F910895DB018F939F930E940A0FBB
:101D5000BF91AF91A29F800D911DA39F900DB29F47
:101D6000900D11240895AA1BBB1B51E107C0AA1FA7
:101D7000BB1FA617B70710F0A61BB70B881F991F2C
:101D80005A95A9F780959095BC01CD01089597FBD0
:101D9000072E16F4009407D077FD09D00E94B30EE9
:101DA00007FC05D03EF4909581959F4F089570955E
:101DB00061957F4F0895A1E21A2EAA1BBB1BFD015E
:101DC0000DC0AA1FBB1FEE1FFF1FA217B307E4071A
:101DD000F50720F0A21BB30BE40BF50B661F771F72
:101DE000881F991F1A9469F7609570958095909552
:101DF0009B01AC01BD01CF010895EE0FFF1F0590BF
:101E0000F491E02D19940E94190FB7FF0895821BD9
:101E1000930B08950E94190FA59F900DB49F900DEC
:101E2000A49F800D911D112408950790F691E02D37
:101E30001994A29FB001B39FC001A39F700D811D93
:101E40001124911DB29F700D811D1124911D0895C3
:041E5000F894FFCF34
:101E54000000F404800001000000FF00000000BC4A
:101E640004C8048201D404570200000000C30625FC
:101E74000A14062F062106A10600000000DC090052
:00000001FF
