:100000000C944F010C942A0C0C945B0C0C948C0CEB
:100010000C94BD0C0C94EE0C0C941F0D0C94500D14
:100020000C94810D0C9480010C9480010C9480013F
:100030000C9480010C94CA0B0C9480010C948001E8
:100040000C9480010C9480010C9480010C9480012C
:100050000C9480010C9480010C9480010C94C20DCE
:100060000C9480010C94D5070C940B080C9480011F
:100070000C9480010C9480010C9480010C948001FC
:100080000C9480010C9480010C9480010C948001EC
:100090000C9482080C94B8080C9480010C94800194
:1000A0000C9480010C9480010C9480010C948001CC
:1000B0000C9480010C9480010C9480010C948001BC
:1000C0000C9480010C9480010C9480010C942F09F5
:1000D0000C9465090C9480010C94DC090C94120AB0
:1000E0000C948001B60EB90EA80EAC0EB20EF00E36
:1000F000BD0EC10EC70ECB0ECF0ED50ED90EDD0E26
:10010000F00EE30EE70EEB0E0C94D50E0C948E065B
:100110000C94D90E0C94CA040C94EC080C943C0A70
:100120000C94C10E0C9499090C94890A0C94B20E8B
:100130000C9457060C94DD0E0C945F060C9482010F
:100140000C94F00E0C94B60E0C94BD0E0C943F085B
:100150000C94E30E0C94CB0E0C946C060C940E07CE
:100160000C94C30A0C947A060C94EC060C94E208E6
:100170000C94460A0C94BE040C948F090C94E70E60
:100180000C94C70E0C94D20A0C9435080C94A80E4B
:100190000C94D6040C94CF0E0C94AC0E0C94EB0E75
:1001A0000C94B90E0200000A0B02090C0D0E080790
:1001B0000304010000000000000000000000000037
:1001C000000000000000000000000000000000002F
:1001D00000121110000000000000000000000000EC
:1001E00000000000000000000000000102102020BC
:1001F000080810204010204080020102010804027B
:1002000001010204081020408080402010080402F0
:100210000180040201804020100804020108040249
:10022000010102040810204080010204081020404F
:100230008005050505070508080808020202020AEC
:100240000A08080404040401010101010101010379
:1002500003030303030303040707070C0C0C0C0C34
:100260000C0C0C0202020206060606060606060B27
:100270000B0B0B0B0B0B0B00002200250028002B97
:10028000002E003100340002010000050108010BBE
:10029000010057063F08EC089909460AC30A1124D1
:1002A0001FBECFEFD1E2DEBFCDBF00E00CBF12E03A
:1002B000A0E0B2E0E4E4F0E200E00BBF02C007908F
:1002C0000D92A233B107D9F725E0A2E3B2E001C055
:1002D0001D92AF35B207E1F712E0CEE9D2E000E0BF
:1002E00006C022970109FE010BBF0E940D10C23902
:1002F000D10780E00807A9F70E94B30D0C942010E5
:100300000C9400006D9A08950E94270F40910A02F4
:1003100050910B0280914402811145C01092360227
:10032000109235028FEF8093390280933A028093C6
:100330003B0280933C0280933D0280933E0281E029
:1003400080933F02109241021092400210923802B4
:10035000109237028091C0029091C102892B31F432
:1003600083E392E09093C1028093C002E091BE02C9
:10037000F091BF02309721F083E392E0958384836C
:1003800083E392E09093BF028093BE0210924302F7
:100390001092420281E192E0909334028093330202
:1003A00081E08093440220E030E06EE572E083E378
:1003B00092E00E9486050E940C0E60934C0270939E
:1003C0004D0280934E0290934F0208950F931F9316
:1003D000109254020E940C0E00914C0210914D029A
:1003E00020914E0230914F02601B710B820B930BD8
:1003F0006093500270935102809352029093530283
:100400000E940C0E60934C0270934D0280934E023A
:1004100090934F020E94300F0E943705809119027D
:1004200090911A02FC0160811F910F910C940306B8
:10043000FF920F931F93CF93DF93EC0180913202D1
:100440008F5F982F97709093320280FD02C080E0FA
:1004500001C080E891FD8064947009F0806290E1B1
:10046000F92EF80E20E030E000E011E0FE01E20F8E
:10047000F31F6285662331F070E0C8010E94BF0F50
:100480006F5F01C060E067834F2D469F412D1124AF
:100490004483662311F0615067832F5F3F4F233001
:1004A000310521F7DF91CF911F910F91FF900895B2
:1004B0002F923F924F925F926F927F928F929F9274
:1004C000AF92BF92CF92DF92EF92FF920F931F9362
:1004D000CF93DF93CDB7DEB761970FB6F894DEBF49
:1004E0000FBECDBF6C015A01F901DC011C968C9145
:1004F0007A8369835C834B8390819B8791819C87FE
:1005000092819D87813029F4CE0101960E941802C4
:1005100006C01A86198618861F821E821D8289814E
:100520009A818E0D911D9A838983002319F083E0AF
:100530008E0D01C080E08E870E94180EF60127857F
:100540003089621B730B62337105B0F3F894E98153
:10055000FA818EB1759858848D81452D481B4D8345
:100560007081772321F0740F08F47FEF01C070E0F1
:100570002B85729F712D11248E85AB81BC819C854A
:100580003D856E80688A7F80798A39844A84E12C2F
:100590001F86212CF12C3D0161E0661A7108AB2BFE
:1005A00009F499C1052D041B402F132D5889151BE3
:1005B000188B642D0989601B698B9EB0192D106200
:1005C000912E8EB0582D5F7D852ED301122D0F8573
:1005D0007888662E6F2D5E2D9EB800C077FF8EB88E
:1005E00061811127889400C000C0002C8EB8611171
:1005F000670D00C0002C9EB800C076FF8EB808F4CE
:100600006FEF889400C000C000C08EB890FD160F38
:1006100000C0002C9EB800C075FF8EB81795889456
:1006200091FD160F00C000C0002C8EB8179588945D
:1006300000C0002C9EB800C074FF8EB892FD160F4B
:100640001795889400C000C0002C8EB893FD160F3B
:1006500000C0002C9EB800C073FF8EB81795889418
:1006600094FD160F00C000C0002C8EB8179588941A
:1006700000C0002C9EB800C072FF8EB895FD160F0A
:100680001795889400C000C0002C8EB896FD160FF8
:1006900000C0002C9EB800C071FF8EB817958894DA
:1006A00097FD160F00C000C0002C8EB817958894D7
:1006B00000C0002C9EB800C070FF8EB800C000C003
:1006C000002C00C000C08EB800C000C0002C9EB836
:1006D00000C017FF8EB862810027889400C000C058
:1006E000002C8EB86111660D00C0002C9EB800C0B1
:1006F00016FF8EB808F46FEF889400C000C000C0E9
:100700008EB830FD060F00C0002C9EB800C015FF4B
:100710008EB80795889431FD060F00C000C0002CEC
:100720008EB80795889400C0002C9EB800C014FFB6
:100730008EB832FD060F0795889400C000C0002CCB
:100740008EB833FD060F00C0002C9EB800C013FF0A
:100750008EB80795889434FD060F00C000C0002CA9
:100760008EB80795889400C0002C9EB800C012FF78
:100770008EB835FD060F0795889400C000C0002C88
:100780008EB836FD060F00C0002C9EB800C011FFC9
:100790008EB80795889437FD060F00C000C0002C66
:1007A0008EB80795889400C0002C9EB800C010FF3A
:1007B0008EB8E80FF11D889400C000C000C08EB84C
:1007C00000C000C0002C9EB800C007FF8EB860813A
:1007D0007727889400C000C0002C8EB86111640F88
:1007E00000C0002C9EB800C006FF8EB808F46FEF62
:1007F000889400C000C000C08EB820FD760F00C0F5
:10080000002C9EB800C005FF8EB87795889421FD16
:10081000760F00C000C0002C8EB87795889400C079
:10082000002C9EB800C004FF8EB822FD760F77958D
:10083000889400C000C0002C8EB823FD760F00C045
:10084000002C9EB800C003FF8EB87795889424FDD5
:10085000760F00C000C0002C8EB87795889400C039
:10086000002C9EB800C002FF8EB825FD760F77954C
:10087000889400C000C0002C8EB826FD760F00C002
:10088000002C9EB800C001FF8EB87795889427FD94
:10089000760F00C000C0002C8EB87795889400C0F9
:1008A000002C9EB800C000FF8EB800C000C0002C15
:1008B00000C000C00F87F62E788A698A612F1F2D2D
:1008C0008EB8698A788AE52EF12E0F87262E00C011
:1008D00000C0002C60CE20EE31E0D5010E94FB0F5D
:1008E0006130A0E47A0781059105B0F000915705C9
:1008F000109158052091590530915A05DC01CB0122
:100900004EE0B695A795979587954A95D1F7800FB4
:10091000911FA21FB31F0BC08091570590915805DE
:10092000A0915905B0915A050196A11DB11D809362
:10093000570590935805A0935905B0935A0578949C
:100940000E94180EF601708B678761960FB6F894B7
:10095000DEBF0FBECDBFDF91CF911F910F91FF90F2
:10096000EF90DF90CF90BF90AF909F908F907F904F
:100970006F905F904F903F902F900895EF92FF926D
:100980000F93E12CF12C00E00E9458020F91FF9090
:10099000EF900895EF92FF920F93E12CF12C01E07C
:1009A0000E9458020F91FF90EF900895EF92FF92EE
:1009B0000F93CF93DF9300D0CDB7DEB7AB01198291
:1009C0001A821B82E12CF12C00E09E012F5F3F4F29
:1009D000B9010E9458020F900F900F90DF91CF91B4
:1009E0000F91FF90EF900895CF9380915402609102
:1009F0005E0220915F0240910A0250910B02813009
:100A000039F030915002E62FF22F80E090E02AC0BA
:100A1000E0915A02F0915B02862F922F20E030E0A5
:100A200003962417350709F162817181C081DC01C9
:100A30001397CC9311967C9311966C932F5F3F4F35
:100A4000EFCF2081231B12160CF420832181231B5E
:100A500012160CF421832281231B12160CF422831C
:100A6000019633968417950761F7CF910895809189
:100A7000550280FD0C94F4040895CF92DF92EF921A
:100A8000FF920F931F93CF93DF93FC018B01108292
:100A900011821282442381F1C0E0D0E0C42ED12C17
:100AA000E12CF12CD801AC0FBD1F16962C91169796
:100AB00019966C912223E1F06623D1F030E040E0FA
:100AC00050E02F5F3F4F4F4F5F4F70E080E090E06E
:100AD0006F5F7F4F8F4F9F4F0E949B0F9B01AC0119
:100AE000C701B6010E949B0FDF01AC0FBD1F8C93A5
:100AF0002196C330D105B1F6CF01DF91CF911F917F
:100B00000F91FF90EF90DF90CF900895CF92DF92FA
:100B1000EF92FF920F931F93CF93DF93EC016B0142
:100B20008A017901121613061CF07A0100E010E028
:100B3000E881F9810480F581E02DCE011995C80185
:100B4000880F991F800F911F8C0D9D1D9B838A8399
:100B5000FE86ED86CE01DF91CF911F910F91FF9020
:100B6000EF90DF90CF900895CF92DF92EF92FF92B7
:100B7000CF93DF93EC018091BC029091BD029C0168
:100B80002F5F3F4F3093BD022093BC02861797071B
:100B90009CF10E940C0E9B01AC01E091BC02F09113
:100BA000BD0288EE93E0E89FB001E99F700DF89FC9
:100BB000700D1124882777FD8095982FC090B8027A
:100BC000D090B902E090BA02F090BB022C193D0916
:100BD0004E095F090E94D30F3A8329831092BD0208
:100BE0001092BC020E940C0E6093B8027093B9027E
:100BF0008093BA029093BB02DF91CF91FF90EF9068
:100C0000DF90CF900895AF92BF92CF92DF92EF9294
:100C1000FF920F931F93CF93DF9300D0CDB7DEB732
:100C20007C01B62E0091C0021091C1020115110580
:100C300059F1D8011C96AC901C97F70181819281E3
:100C40008436910510F41C961C92D801ED91FC910C
:100C5000C280D3804B2DB801CE0101960E943D0584
:100C6000F80145855685628173819E012F5F3F4F54
:100C7000C801F6011995D8011C96AC921C971496E0
:100C80000D911C911597D2CF69E170E0C7010E94C8
:100C9000B4050F900F900F90DF91CF911F910F919E
:100CA000FF90EF90DF90CF90BF90AF9008958FEFBF
:100CB0008093C2021092C4021092C3020895FC01F4
:100CC000818D228D90E0805C9F4F821B910960E4B2
:100CD00070E00E94BF0F0895FC01918D828D9817DE
:100CE00031F0828DE80FF11D858D90E008958FEF32
:100CF0009FEF0895FC01918D828D981761F0828D90
:100D0000DF01A80FB11D5D968C91928D9F5F9F733F
:100D1000928F90E008958FEF9FEF089585E398E01C
:100D2000892B41F080E090E0892B21F00E9435086A
:100D3000811125C082EE98E0892B41F080E090E09F
:100D4000892B21F00E94E20881111CC08FE899E0F4
:100D5000892B41F080E090E0892B21F00E948F09DF
:100D6000811113C08CE39AE0892BA1F080E090E020
:100D7000892B81F00E943C0A81110AC008950E94CB
:100D80000000D8CF0E940000E1CF0E940000EACF0F
:100D90000C9400000895FC01848DDF01A80FB11DA3
:100DA000A35ABF4F2C91848D90E001968F739927A1
:100DB000848FA689B7892C93A089B1898C9180648E
:100DC0008C93938D848D981306C00288F389E02D4F
:100DD00080818F7D80830895CF93DF93EC01888D90
:100DE0008823C9F0EA89FB89808185FD05C0A8892F
:100DF000B9898C9186FD0FC00FB607FCF5CF8081B5
:100E000085FFF2CFA889B9898C9185FFEDCFCE01FE
:100E10000E94CB06E7CFDF91CF910895CF92DF926A
:100E2000FF920F931F93CF93DF931F92CDB7DEB73F
:100E30006C01DC015B969C915B975C968C915C9756
:100E4000981307C05096ED91FC915197808185FDD4
:100E500032C0F601038D10E00F5F1F4F0F73112793
:100E6000F02EF601848DF81211C00FB607FCF9CFF1
:100E7000D6015096ED91FC915197808185FFF1CF7D
:100E8000C60169830E94CB066981EBCF838DE80F91
:100E9000F11DE35AFF4F6083D6015B960C935B977D
:100EA0005296ED91FC91539780818062808381E01E
:100EB00058968C930DC0D6015696ED91FC9157979C
:100EC00060835096ED91FC9151978081806480837E
:100ED00081E090E00F90DF91CF911F910F91FF90F3
:100EE000DF90CF900895BF92CF92DF92EF92FF9262
:100EF000CF93DF93EC016A017B01B22EE889F98977
:100F000082E08083411581EE580761057105A1F0EB
:100F100060E079E08DE390E0A70196010E94D30F95
:100F20002150310941095109569547953795279523
:100F3000211580E1380798F0E889F989108260E886
:100F400074E88EE190E0A70196010E94D30F215032
:100F50003109410951095695479537952795EC85F3
:100F6000FD853083EE85FF852083188EEC89FD8911
:100F7000B082EA89FB89808180618083EA89FB896C
:100F8000808188608083EA89FB8980818068808392
:100F9000EA89FB8980818F7D8083DF91CF91FF90EB
:100FA000EF90DF90CF90BF9008951F920F920FB6F1
:100FB0000F9211240BB60F922F938F939F93EF9361
:100FC000FF93E091D502F091D6028081E091DB029F
:100FD000F091DC0282FD12C090818091DE028F5F71
:100FE0008F732091DF02821751F0E091DE02F0E072
:100FF000EB53FD4F958F8093DE0201C08081FF91FE
:10100000EF919F918F912F910F900BBE0F900FBE7C
:101010000F901F9018951F920F920FB60F921124E8
:101020000BB60F922F933F934F935F936F937F93E2
:101030008F939F93AF93BF93EF93FF9385EC92E0D1
:101040000E94CB06FF91EF91BF91AF919F918F913D
:101050007F916F915F914F913F912F910F900BBEB8
:101060000F900FBE0F901F90189585EC92E00E9494
:101070005F0621E0892B09F420E0822F0895109269
:10108000C8021092C70288EE93E0A0E0B0E080931F
:10109000C9029093CA02A093CB02B093CC028FE115
:1010A00092E09093C6028093C50285EC90E0909305
:1010B000D2028093D10284EC90E09093D40280938A
:1010C000D30280EC90E09093D6028093D50281EC1D
:1010D00090E09093D8028093D70282EC90E09093B6
:1010E000DA028093D90286EC90E09093DC02809340
:1010F000DB021092DE021092DF021092E0021092E8
:10110000E10208951F920F920FB60F9211240BB6B1
:101110000F922F938F939F93EF93FF93E09172031E
:10112000F09173038081E0917803F091790382FD5F
:1011300012C0908180917B038F5F8F7320917C031D
:10114000821751F0E0917B03F0E0EE59FC4F958F50
:1011500080937B0301C08081FF91EF919F918F91DC
:101160002F910F900BBE0F900FBE0F901F901895F0
:101170001F920F920FB60F9211240BB60F922F935E
:101180003F934F935F936F937F938F939F93AF930F
:10119000BF93EF93FF9382E693E00E94CB06FF910B
:1011A000EF91BF91AF919F918F917F916F915F91DF
:1011B0004F913F912F910F900BBE0F900FBE0F904C
:1011C0001F90189582E693E00E945F0621E0892B2C
:1011D00009F420E0822F08951092650310926403B1
:1011E00088EE93E0A0E0B0E08093660390936703FD
:1011F000A0936803B09369038FE192E09093630337
:10120000809362038DEC90E090936F0380936E0364
:101210008CEC90E0909371038093700388EC90E0E5
:10122000909373038093720389EC90E0909375031D
:10123000809374038AEC90E0909377038093760315
:101240008EEC90E0909379038093780310927B0367
:1012500010927C0310927D0310927E0308951F92DA
:101260000F920FB60F9211240BB60F922F938F93FC
:101270009F93EF93FF93E0910F04F091100480810E
:10128000E0911504F091160482FD12C090818091C6
:1012900018048F5F8F7320911904821751F0E09129
:1012A0001804F0E0E150FC4F958F8093180401C0C2
:1012B0008081FF91EF919F918F912F910F900BBEA5
:1012C0000F900FBE0F901F9018951F920F920FB6A0
:1012D0000F9211240BB60F922F933F934F935F936E
:1012E0006F937F938F939F93AF93BF93EF93FF93EE
:1012F0008FEF93E00E94CB06FF91EF91BF91AF91EA
:101300009F918F917F916F915F914F913F912F911D
:101310000F900BBE0F900FBE0F901F9018958FEF80
:1013200093E00E945F0621E0892B09F420E0822FE0
:101330000895109202041092010488EE93E0A0E058
:10134000B0E08093030490930404A0930504B09349
:1013500006048FE192E0909300048093FF0385EDF3
:1013600090E090930C0480930B0484ED90E09093B4
:101370000E0480930D0480ED90E090931004809310
:101380000F0481ED90E0909312048093110482ED9C
:1013900090E0909314048093130486ED90E0909372
:1013A00016048093150410921804109219041092D8
:1013B0001A0410921B0408951F920F920FB60F92F9
:1013C00011240BB60F922F938F939F93EF93FF935C
:1013D000E091AC04F091AD048081E091B204F09111
:1013E000B30482FD12C090818091B5048F5F8F732A
:1013F0002091B604821751F0E091B504F0E0E45674
:10140000FB4F958F8093B50401C08081FF91EF91D0
:101410009F918F912F910F900BBE0F900FBE0F9049
:101420001F9018951F920F920FB60F9211240BB6B2
:101430000F922F933F934F935F936F937F938F936D
:101440009F93AF93BF93EF93FF938CE994E00E9437
:10145000CB06FF91EF91BF91AF919F918F917F91BB
:101460006F915F914F913F912F910F900BBE0F9015
:101470000FBE0F901F9018958CE994E00E945F06B4
:1014800021E0892B09F420E0822F089510929F0417
:1014900010929E0488EE93E0A0E0B0E08093A00458
:1014A0009093A104A093A204B093A3048FE192E0CF
:1014B00090939D0480939C0485E391E09093A9040C
:1014C0008093A80484E391E09093AB048093AA04F2
:1014D00080E391E09093AD048093AC0481E391E0CC
:1014E0009093AF048093AE0482E391E09093B104B3
:1014F0008093B00486E391E09093B3048093B204A8
:101500001092B5041092B6041092B7041092B80469
:101510000895AF92BF92CF92DF92EF92FF920F9316
:101520001F93CF93DF936C017B01C0E0D0E000E01C
:1015300010E0F601EC0FFD1F4AE050E06281C701A8
:101540000E947D0B5C016EE2C7010E94100B8A0DA8
:101550009B1D080F191F2196C330D10551F74AE092
:1015600050E0F6016581C7010E947D0B800F911F3D
:10157000DF91CF911F910F91FF90EF90DF90CF906F
:10158000BF90AF9008958FE292E090933A058093D8
:10159000390510923B0510923C0510923D051092C2
:1015A0003E050895CF92DF92EF92FF920F931F9323
:1015B000CF93DF936C017A01EB01E60EF71E00E09A
:1015C00010E0CE15DF0561F06991D601ED91FC9137
:1015D0000190F081E02DC6011995080F191FF1CF78
:1015E000C801DF91CF911F910F91FF90EF90DF9095
:1015F000CF9008956115710581F0DB010D900020F9
:10160000E9F7AD0141505109461B570BDC01ED9143
:10161000FC910280F381E02D199480E090E0089520
:10162000DC01ED91FC910190F081E02D19948F92F5
:101630009F92AF92BF92CF92DF92EF92FF920F9361
:101640001F93CF93DF93CDB7DEB7A1970FB6F89472
:10165000DEBF0FBECDBF7C01C42EE52FCB01D22E45
:1016600019A221E02D1510F02AE0D22E8E010F5D77
:101670001F4F8D2C912CA12CB12C6C2D7E2FA501F0
:1016800094010E94D30F8C2DD29E801911240150F9
:1016900011098A3014F4805D01C0895CF8018083EF
:1016A000211531054105510521F0C22EE32FCA0154
:1016B000E4CFB801C7010E94FA0AA1960FB6F894C8
:1016C000DEBF0FBECDBFDF91CF911F910F91FF9075
:1016D000EF90DF90CF90BF90AF909F908F90089544
:1016E0002115310541F4DC01ED91FC910190F0816F
:1016F000E02D642F19940C94170B9A01462F50E09B
:1017000060E070E00C94700B8230A9F028F488231C
:1017100049F0813051F00895843009F1E8F08530C6
:1017200009F1089510926E00089580916F008D7FE9
:1017300080936F000895809170008D7F809370007A
:1017400081E08093B0008091B100887F84608093B5
:10175000B1001092B3000895109271000895109294
:1017600072000895109273000895CF93C82F80914E
:101770000C028C1307C0E4EAF1E084919FEF909390
:101780000C0201C08FEF0E94840B60E08C2FCF9180
:101790000C94F10E1F920F920FB60F9211240BB6FC
:1017A0000F922F933F934F935F936F937F938F93FA
:1017B0009F93AF93BF93EF93FF93809142059091D6
:1017C0004305A0914405B0914505892B8A2B8B2BAD
:1017D00051F190913F05E0914005F09141058081E4
:1017E000892780838091420590914305A09144050B
:1017F000B0914505181619061A061B06C4F4809107
:10180000420590914305A0914405B091450501978B
:10181000A109B1098093420590934305A093440523
:10182000B093450504C080910C020E94B50BFF9156
:10183000EF91BF91AF919F918F917F916F915F9148
:101840004F913F912F910F900BBE0F900FBE0F90B5
:101850001F9018951F920F920FB60F9211240BB67E
:101860000F922F933F934F935F936F937F938F9339
:101870009F93AF93BF93EF93FF9380914A0590910D
:101880004B05892B29F0E0914A05F0914B051995FC
:10189000FF91EF91BF91AF919F918F917F916F9148
:1018A0005F914F913F912F910F900BBE0F900FBE04
:1018B0000F901F9018951F920F920FB60F92112440
:1018C0000BB60F922F933F934F935F936F937F933A
:1018D0008F939F93AF93BF93EF93FF9380914C05AA
:1018E00090914D05892B29F0E0914C05F0914D0523
:1018F0001995FF91EF91BF91AF919F918F917F913A
:101900006F915F914F913F912F910F900BBE0F9070
:101910000FBE0F901F9018951F920F920FB60F9247
:1019200011240BB60F922F933F934F935F936F93B6
:101930007F938F939F93AF93BF93EF93FF93809188
:101940004E0590914F05892B29F0E0914E05F091BD
:101950004F051995FF91EF91BF91AF919F918F9195
:101960007F916F915F914F913F912F910F900BBE9F
:101970000F900FBE0F901F9018951F920F920FB6E9
:101980000F9211240BB60F922F933F934F935F93B7
:101990006F937F938F939F93AF93BF93EF93FF9337
:1019A0008091500590915105892B29F0E0915005C7
:1019B000F09151051995FF91EF91BF91AF919F91D2
:1019C0008F917F916F915F914F913F912F910F90E8
:1019D0000BBE0F900FBE0F901F9018951F920F9285
:1019E0000FB60F9211240BB60F922F933F934F9384
:1019F0005F936F937F938F939F93AF93BF93EF9377
:101A0000FF938091460590914705892B29F0E0913D
:101A10004605F09147051995FF91EF91BF91AF9160
:101A20009F918F917F916F915F914F913F912F91F6
:101A30000F900BBE0F900FBE0F901F9018951F9226
:101A40000F920FB60F9211240BB60F922F933F9364
:101A50004F935F936F937F938F939F93AF93BF93B6
:101A6000EF93FF938091480590914905892B29F0C8
:101A7000E0914805F09149051995FF91EF91BF91CB
:101A8000AF919F918F917F916F915F914F913F9116
:101A90002F910F900BBE0F900FBE0F901F901895B7
:101AA0001F920F920FB60F9211240BB60F922F9325
:101AB0003F934F935F936F937F938F939F93AF93D6
:101AC000BF93EF93FF938091520590915305892B1B
:101AD00029F0E0915205F09153051995FF91EF918E
:101AE000BF91AF919F918F917F916F915F914F9136
:101AF0003F912F910F900BBE0F900FBE0F901F9034
:101B000018951F920F920FB60F9211240BB60F92D9
:101B10002F933F934F935F936F937F938F939F93F5
:101B2000AF93BF93EF93FF93809154059091550528
:101B3000892B29F0E0915405F09155051995FF91F5
:101B4000EF91BF91AF919F918F917F916F915F9135
:101B50004F913F912F910F900BBE0F900FBE0F90A2
:101B60001F90189508950E943B0E0E94B20D0E948E
:101B70008401CEE8D6E00E94E6012097E1F30E94BE
:101B80008E06F9CF1F920F920FB60F9211242F934A
:101B90003F938F939F93AF93BF93809157059091FD
:101BA0005805A0915905B0915A053091560523E08A
:101BB000230F2D3720F40196A11DB11D05C026E885
:101BC000230F0296A11DB11D209356058093570542
:101BD00090935805A0935905B0935A0580915B05E1
:101BE00090915C05A0915D05B0915E050196A11DE7
:101BF000B11D80935B0590935C05A0935D05B09348
:101C00005E05BF91AF919F918F913F912F910F9062
:101C10000FBE0F901F9018952FB7F894609157053D
:101C2000709158058091590590915A052FBF0895DC
:101C30003FB7F89480915B0590915C05A0915D059C
:101C4000B0915E0526B5A89B05C02F3F19F00196FF
:101C5000A11DB11D3FBF6627782F892F9A2F620FD4
:101C6000711D811D911D42E0660F771F881F991F0E
:101C70004A95D1F70895789484B5826084BD84B57F
:101C8000816084BD85B5826085BD85B5816085BD77
:101C9000EEE6F0E0808181608083E1E8F0E0108290
:101CA000808182608083808181608083E0E8F0E0D1
:101CB000808181608083E1EBF0E0808184608083BB
:101CC000E0EBF0E0808181608083E1E9F0E08081F9
:101CD00082608083808181608083E0E9F0E08081A0
:101CE00081608083E1EAF0E080818260808380818E
:101CF00081608083E0EAF0E0808181608083E1E2BE
:101D0000F1E0808182608083808181608083E0E275
:101D1000F1E0808181608083EAE7F0E08081846087
:101D200080838081826080838081816080838081E4
:101D3000806880831092C100089590E0FC01319783
:101D4000E231F10508F04CC0EE58FF4F0C94F50F4E
:101D5000809180008F7703C0809180008F7D809379
:101D60008000089580918000877FF9CF84B58F77B8
:101D700002C084B58F7D84BD08958091B0008F77B7
:101D800003C08091B0008F7D8093B0000895809152
:101D900090008F7707C0809190008F7D03C0809165
:101DA0009000877F8093900008958091A0008F77A6
:101DB00007C08091A0008F7D03C08091A000877F25
:101DC0008093A0000895809120018F7707C08091B3
:101DD00020018F7D03C080912001877F80932001A7
:101DE00008950F931F93CF93DF931F92CDB7DEB764
:101DF000282F30E0F901EB55FE4F8491F901E551B0
:101E0000FE4F1491F901EF5CFD4F04910023C9F0DE
:101E1000882321F069830E949D0E6981E02FF0E004
:101E2000EE0FFF1FE958FD4FA591B4919FB7F894AD
:101E30008C91611103C01095812301C0812B8C937B
:101E40009FBF0F90DF91CF911F910F91089526E0D2
:101E500040E855E260E070E085EC92E00C94730796
:101E6000CF93DF9385EC92E00E945F061816190667
:101E70000CF05EC085EC92E00E947A06811137C0BA
:101E8000C0915A02D0915B0285EC92E00E947A06E2
:101E90008883C0915A02D0915B0285EC92E00E9447
:101EA0007A068983C0915A02D0915B0285EC92E058
:101EB0000E947A068A83C0915702D091580285EC1D
:101EC00092E00E947A068883C0915702D09158020E
:101ED00085EC92E00E947A068983C0915702D091E6
:101EE000580285EC92E00E947A068A8321C085EC34
:101EF00092E00E947A0680935D0285EC92E00E9457
:101F00007A068093540285EC92E00E947A06D82FDC
:101F100080E0C82FD0935602C093550285EC92E022
:101F20000E947A068C2B9D2B90935602809355022B
:101F3000DF91CF910895DB018F939F930E94021050
:101F4000BF91AF91A29F800D911DA39F900DB29F55
:101F5000900D11240895AA1BBB1B51E107C0AA1FB5
:101F6000BB1FA617B70710F0A61BB70B881F991F3A
:101F70005A95A9F780959095BC01CD01089597FBDE
:101F8000072E16F4009407D077FD09D00E94AB0FFE
:101F900007FC05D03EF4909581959F4F089570956C
:101FA00061957F4F0895A1E21A2EAA1BBB1BFD016C
:101FB0000DC0AA1FBB1FEE1FFF1FA217B307E40728
:101FC000F50720F0A21BB30BE40BF50B661F771F80
:101FD000881F991F1A9469F7609570958095909560
:101FE0009B01AC01BD01CF010895EE0FFF1F0590CD
:101FF000F491E02D19940E941110B7FF0895821BEF
:10200000930B08950E941110A59F900DB49F900D01
:10201000A49F800D911D112408950790F691E02D45
:102020001994A29FB001B39FC001A39F700D811DA1
:102030001124911DB29F700D811D1124911D0895D1
:04204000F894FFCF42
:1020440000005F058000010000001E00FF0000008A
:1020540000BE04CA048201D604C202000000000EBD
:1020640007D20A5F067A066C06EC060000000089B7
:022074000A0060
:00000001FF
