:100000000C945C010C94E10A0C94120B0C94430BBD
:100010000C94740B0C94A50B0C94D60B0C94070C3D
:100020000C94380C0C948D010C948D010C948D0162
:100030000C948D010C94810A0C948D010C948D010B
:100040000C948D010C948D010C948D010C948D01F8
:100050000C948D010C948D010C948D010C947A0CF0
:100060000C948D010C948C060C94C2060C948D019A
:100070000C948D010C948D010C948D010C948D01C8
:100080000C948D010C948D010C948D010C948D01B8
:100090000C9439070C946F070C948D010C948D010E
:1000A0000C948D010C948D010C948D010C948D0198
:1000B0000C948D010C948D010C948D010C948D0188
:1000C0000C948D010C948D010C948D010C94E60719
:1000D0000C941C080C948D010C9493080C94C90882
:1000E0000C948D018A0D8D0D7C0D800D860DC40D37
:1000F000910D950D9B0D9F0DA30DA90DAD0DB10D8E
:10010000C40DB70DBB0DBF0D0C94C40D0C94A3050D
:100110000C94B6040C94AD0D0C94F3080C944009A7
:100120000C947C0D0C940E050C94860D0C94A30D70
:100130000C94BF0D0C94A90D0C9431050C948F01F7
:100140000C949B0D0C94A3070C9416050C94BB0DFA
:100150000C9445050C94EC060C94B70D0C94FD081A
:100160000C94AA040C9450080C94950D0C94460819
:100170000C9423050C94910D0C947A090C94C505EC
:100180000C949F0D0C94800D0C94B10D0C94F606FC
:100190000C94C2040C9499070C948A0D0C94890950
:1001A0000C948D0D0200000A0B02090C0D0E0807BD
:1001B0000304010000000000000000000000000037
:1001C000000000000000000000000000000000002F
:1001D00000121110000000000000000000000000EC
:1001E00000000000000000000000000102102020BC
:1001F000080810204010204080020102010804027B
:1002000001010204081020408080402010080402F0
:100210000180040201804020100804020108040249
:10022000010102040810204080010204081020404F
:100230008005050505070508080808020202020AEC
:100240000A08080404040401010101010101010379
:1002500003030303030303040707070C0C0C0C0C34
:100260000C0C0C0202020206060606060606060B27
:100270000B0B0B0B0B0B0B00002200250028002B97
:10028000002E003100340002010000050108010BBE
:100290000100002100240027002A002D0030003337
:1002A0000001010000040107010A01000E05F60625
:1002B000A3075008FD087A0911241FBECFEFD1E231
:1002C000DEBFCDBF00E00CBF12E0A0E0B2E0E8E28C
:1002D000FEE100E00BBF02C007900D92A033B10712
:1002E000D9F725E0A0E3B2E001C01D92AF34B20718
:1002F000E1F712E0C8EBD2E000E006C02297010966
:10030000FE010BBF0E94FF0ECC3AD10780E0080728
:10031000A9F70E946B0C0C94120F0C9400006D9ABC
:1003200008950E94340E40910A0250910B02809170
:100330004202811145C010923402109233028FEFB5
:1003400080933702809338028093390280933A0277
:1003500080933B0280933C0281E080933D021092A7
:100360003F0210923E0210923602109235028091A6
:10037000B0029091B102892B31F481E392E0909325
:10038000B1028093B002E091AE02F091AF023097DB
:1003900021F081E392E09583848381E392E090935E
:1003A000AF028093AE02109241021092400281E1AE
:1003B00092E0909332028093310281E08093420276
:1003C00020E030E064E572E081E392E00E94E00426
:1003D00061E08DE00C94C50D10924A020E943D0E22
:1003E00061E08DE00E94FE0D64E170E080E090E04D
:1003F0000E94E70C60E08DE00E94FE0D64EF71E06A
:1004000080E090E00C94E70CFF920F931F93CF9342
:10041000DF93EC01809130028F5F982F977090935B
:10042000300280FD02C080E001C080E891FD806460
:10043000947009F0806290E1F92EF80E20E030E02F
:1004400000E011E0FE01E20FF31F6285662331F048
:1004500070E0C8010E94BC0E6F5F01C060E067835E
:100460004F2D469F412D11244483662311F0615086
:1004700067832F5F3F4F2330310521F7DF91CF9105
:100480001F910F91FF9008952F923F924F925F928C
:100490006F927F928F929F92AF92BF92CF92DF9294
:1004A000EF92FF920F931F93CF93DF93CDB7DEB7F9
:1004B00061970FB6F894DEBF0FBECDBF6C015A0135
:1004C000F901DC011C968C917A8369835C834B83F0
:1004D00090819B8791819C8792819D87813029F4AF
:1004E000CE0101960E94040206C01A86198618865B
:1004F0001F821E821D8289819A818E0D911D9A8391
:100500008983002319F083E08E0D01C080E08E877F
:100510000E94C40CF60127853089621B730B62337D
:100520007105B0F3F894E981FA818EB17598588419
:100530008D81452D481B4D837081772321F0740FE9
:1005400008F47FEF01C070E02B85729F712D11249C
:100550008E85AB81BC819C853D856E80688A7F805D
:10056000798A39844A84E12C1F86212CF12C3D01A3
:1005700061E0661A7108AB2B09F499C1052D041BC3
:10058000402F132D5889151B188B642D0989601B6A
:10059000698B9EB0192D1062912E8EB0582D5F7D03
:1005A000852ED301122D0F857888662E6F2D5E2D36
:1005B0009EB800C077FF8EB861811127889400C073
:1005C00000C0002C8EB86111670D00C0002C9EB8D1
:1005D00000C076FF8EB808F46FEF889400C000C0AA
:1005E00000C08EB890FD160F00C0002C9EB800C051
:1005F00075FF8EB81795889491FD160F00C000C046
:10060000002C8EB81795889400C0002C9EB800C0AE
:1006100074FF8EB892FD160F1795889400C000C025
:10062000002C8EB893FD160F00C0002C9EB800C0A1
:1006300073FF8EB81795889494FD160F00C000C004
:10064000002C8EB81795889400C0002C9EB800C06E
:1006500072FF8EB895FD160F1795889400C000C0E4
:10066000002C8EB896FD160F00C0002C9EB800C05E
:1006700071FF8EB81795889497FD160F00C000C0C3
:10068000002C8EB81795889400C0002C9EB800C02E
:1006900070FF8EB800C000C0002C00C000C08EB833
:1006A00000C000C0002C9EB800C017FF8EB8628149
:1006B0000027889400C000C0002C8EB86111660D20
:1006C00000C0002C9EB800C016FF8EB808F46FEF73
:1006D000889400C000C000C08EB830FD060F00C076
:1006E000002C9EB800C015FF8EB80795889431FD88
:1006F000060F00C000C0002C8EB80795889400C07B
:10070000002C9EB800C014FF8EB832FD060F07956E
:10071000889400C000C0002C8EB833FD060F00C0C6
:10072000002C9EB800C013FF8EB80795889434FD46
:10073000060F00C000C0002C8EB80795889400C03A
:10074000002C9EB800C012FF8EB835FD060F07952D
:10075000889400C000C0002C8EB836FD060F00C083
:10076000002C9EB800C011FF8EB80795889437FD05
:10077000060F00C000C0002C8EB80795889400C0FA
:10078000002C9EB800C010FF8EB8E80FF11D8894B1
:1007900000C000C000C08EB800C000C0002C9EB8D1
:1007A00000C007FF8EB860817727889400C000C022
:1007B000002C8EB86111640F00C0002C9EB800C0E0
:1007C00006FF8EB808F46FEF889400C000C000C028
:1007D0008EB820FD760F00C0002C9EB800C005FF2B
:1007E0008EB87795889421FD760F00C000C0002C4C
:1007F0008EB87795889400C0002C9EB800C004FF86
:100800008EB822FD760F7795889400C000C0002C2A
:100810008EB823FD760F00C0002C9EB800C003FFE9
:100820008EB87795889424FD760F00C000C0002C08
:100830008EB87795889400C0002C9EB800C002FF47
:100840008EB825FD760F7795889400C000C0002CE7
:100850008EB826FD760F00C0002C9EB800C001FFA8
:100860008EB87795889427FD760F00C000C0002CC5
:100870008EB87795889400C0002C9EB800C000FF09
:100880008EB800C000C0002C00C000C00F87F62E3C
:10089000788A698A612F1F2D8EB8698A788AE52E39
:1008A000F12E0F87262E00C000C0002C60CE20EE57
:1008B00031E0D5010E94F80E6130A0E47A0781058D
:1008C0009105B0F000914705109148052091490528
:1008D00030914A05DC01CB014EE0B695A79597957E
:1008E00087954A95D1F7800F911FA21FB31F0BC0A8
:1008F0008091470590914805A0914905B0914A051E
:100900000196A11DB11D8093470590934805A093C2
:100910004905B0934A0578940E94C40CF601708B87
:10092000678761960FB6F894DEBF0FBECDBFDF912B
:10093000CF911F910F91FF90EF90DF90CF90BF90DC
:10094000AF909F908F907F906F905F904F903F906F
:100950002F900895EF92FF920F93E12CF12C00E07D
:100960000E9444020F91FF90EF900895EF92FF9242
:100970000F93E12CF12C01E00E9444020F91FF90B3
:10098000EF900895EF92FF920F93CF93DF9300D0F3
:10099000CDB7DEB7AB0119821A821B82E12CF12C94
:1009A00000E09E012F5F3F4FB9010E9444020F906B
:1009B0000F900F90DF91CF910F91FF90EF900895DE
:1009C000CF92DF92EF92FF920F931F93CF93DF931B
:1009D000EC016B018A017901121613061CF07A01F1
:1009E00000E010E0E881F9810480F581E02DCE017E
:1009F0001995C801880F991F800F911F8C0D9D1D9F
:100A00009B838A83FE86ED86CE01DF91CF911F9175
:100A10000F91FF90EF90DF90CF9008958FEF80932C
:100A2000B2021092B4021092B3020895FC01818DBB
:100A3000228D90E0805C9F4F821B910960E470E002
:100A40000E94BC0E0895FC01918D828D981731F0A3
:100A5000828DE80FF11D858D90E008958FEF9FEF57
:100A60000895FC01918D828D981761F0828DDF01D0
:100A7000A80FB11D5D968C91928D9F5F9F73928F91
:100A800090E008958FEF9FEF08958CEE96E0892B0C
:100A900041F080E090E0892B21F00E94EC0681116A
:100AA00025C089E997E0892B41F080E090E0892B0F
:100AB00021F00E94990781111CC086E498E0892BDF
:100AC00041F080E090E0892B21F00E9446088111DE
:100AD00013C083EF98E0892BA1F080E090E0892B90
:100AE00081F00E94F30881110AC008950E9400005D
:100AF000D8CF0E940000E1CF0E940000EACF0C9402
:100B000000000895FC01848DDF01A80FB11DA35AD8
:100B1000BF4F2C91848D90E001968F739927848F1D
:100B2000A689B7892C93A089B1898C9180648C9314
:100B3000938D848D981306C00288F389E02D8081FF
:100B40008F7D80830895CF93DF93EC01888D882378
:100B5000C9F0EA89FB89808185FD05C0A889B9892A
:100B60008C9186FD0FC00FB607FCF5CF808185FF05
:100B7000F2CFA889B9898C9185FFEDCFCE010E9473
:100B80008205E7CFDF91CF910895CF92DF92FF9258
:100B90000F931F93CF93DF931F92CDB7DEB76C01F6
:100BA000DC015B969C915B975C968C915C979813AB
:100BB00007C05096ED91FC915197808185FD32C020
:100BC000F601038D10E00F5F1F4F0F731127F02EFA
:100BD000F601848DF81211C00FB607FCF9CFD601CB
:100BE0005096ED91FC915197808185FFF1CFC60120
:100BF00069830E9482056981EBCF838DE80FF11D27
:100C0000E35AFF4F6083D6015B960C935B97529635
:100C1000ED91FC91539780818062808381E05896AA
:100C20008C930DC0D6015696ED91FC915797608339
:100C30005096ED91FC91519780818064808381E092
:100C400090E00F90DF91CF911F910F91FF90DF9077
:100C5000CF900895BF92CF92DF92EF92FF92CF9301
:100C6000DF93EC016A017B01B22EE889F98982E009
:100C70008083411581EE580761057105A1F060E0A0
:100C800079E08DE390E0A70196010E94D00E2150FB
:100C900031094109510956954795379527952115F1
:100CA00080E1380798F0E889F989108260E874E8F3
:100CB0008EE190E0A70196010E94D00E21503109EB
:100CC000410951095695479537952795EC85FD853E
:100CD0003083EE85FF852083188EEC89FD89B082F4
:100CE000EA89FB89808180618083EA89FB89808130
:100CF00088608083EA89FB89808180688083EA89B3
:100D0000FB8980818F7D8083DF91CF91FF90EF9071
:100D1000DF90CF90BF9008951F920F920FB60F9261
:100D200011240BB60F922F938F939F93EF93FF9302
:100D3000E091C502F091C6028081E091CB02F09172
:100D4000CC0282FD12C090818091CE028F5F8F73A2
:100D50002091CF02821751F0E091CE02F0E0EB54E7
:100D6000FD4F958F8093CE0201C08081FF91EF915E
:100D70009F918F912F910F900BBE0F900FBE0F90F0
:100D80001F9018951F920F920FB60F9211240BB659
:100D90000F922F933F934F935F936F937F938F9314
:100DA0009F93AF93BF93EF93FF9385EB92E00E94E5
:100DB0008205FF91EF91BF91AF919F918F917F91AC
:100DC0006F915F914F913F912F910F900BBE0F90BC
:100DD0000FBE0F901F90189585EB92E00E941605AC
:100DE00021E0892B09F420E0822F08951092B802A7
:100DF0001092B70288EE93E0A0E0B0E08093B902D1
:100E00009093BA02A093BB02B093BC028DE192E032
:100E10009093B6028093B50285EC90E09093C20265
:100E20008093C10284EC90E09093C4028093C3024B
:100E300080EC90E09093C6028093C50281EC90E034
:100E40009093C8028093C70282EC90E09093CA020C
:100E50008093C90286EC90E09093CC028093CB0201
:100E60001092CE021092CF021092D0021092D102B4
:100E700008951F920F920FB60F9211240BB60F9286
:100E80002F938F939F93EF93FF93E0916203F091E1
:100E900063038081E0916803F091690382FD12C0D1
:100EA000908180916B038F5F8F7320916C03821709
:100EB00051F0E0916B03F0E0EE5AFC4F958F809378
:100EC0006B0301C08081FF91EF919F918F912F91D2
:100ED0000F900BBE0F900FBE0F901F9018951F9292
:100EE0000F920FB60F9211240BB60F922F933F93D0
:100EF0004F935F936F937F938F939F93AF93BF9322
:100F0000EF93FF9382E593E00E948205FF91EF91BA
:100F1000BF91AF919F918F917F916F915F914F9111
:100F20003F912F910F900BBE0F900FBE0F901F900F
:100F3000189582E593E00E94160521E0892B09F4BB
:100F400020E0822F0895109255031092540388EEEA
:100F500093E0A0E0B0E08093560390935703A093F2
:100F60005803B09359038DE192E09093530380931B
:100F700052038DEC90E090935F0380935E038CECC2
:100F800090E0909361038093600388EC90E09093ED
:100F900063038093620389EC90E0909365038093F0
:100FA00064038AEC90E090936703809366038EEC71
:100FB00090E0909369038093680310926B03109202
:100FC0006C0310926D0310926E0308951F920F929E
:100FD0000FB60F9211240BB60F922F938F939F93FE
:100FE000EF93FF93E091FF03F09100048081E09183
:100FF0000504F091060482FD12C0908180910804DE
:101000008F5F8F7320910904821751F0E0910804DB
:10101000F0E0E151FC4F958F8093080401C080817E
:10102000FF91EF919F918F912F910F900BBE0F9099
:101030000FBE0F901F9018951F920F920FB60F9230
:1010400011240BB60F922F933F934F935F936F939F
:101050007F938F939F93AF93BF93EF93FF938FEE05
:1010600093E00E948205FF91EF91BF91AF919F9114
:101070008F917F916F915F914F913F912F910F9041
:101080000BBE0F900FBE0F901F9018958FEE93E040
:101090000E94160521E0892B09F420E0822F089593
:1010A0001092F2031092F10388EE93E0A0E0B0E01A
:1010B0008093F3039093F403A093F503B093F603A6
:1010C0008DE192E09093F0038093EF0385ED90E043
:1010D0009093FC038093FB0384ED90E09093FE03D8
:1010E0008093FD0380ED90E0909300048093FF03D4
:1010F00081ED90E0909302048093010482ED90E0F2
:10110000909304048093030486ED90E0909306048A
:1011100080930504109208041092090410920A04A6
:1011200010920B0408951F920F920FB60F92112484
:101130000BB60F922F938F939F93EF93FF93E091B2
:101140009C04F0919D048081E091A204F091A3049D
:1011500082FD12C090818091A5048F5F8F732091D2
:10116000A604821751F0E091A504F0E0E457FB4F8C
:10117000958F8093A50401C08081FF91EF919F918D
:101180008F912F910F900BBE0F900FBE0F901F905D
:1011900018951F920F920FB60F9211240BB60F9253
:1011A0002F933F934F935F936F937F938F939F936F
:1011B000AF93BF93EF93FF938CE894E00E94820576
:1011C000FF91EF91BF91AF919F918F917F916F911F
:1011D0005F914F913F912F910F900BBE0F900FBEDB
:1011E0000F901F9018958CE894E00E94160521E05E
:1011F000892B09F420E0822F089510928F04109219
:101200008E0488EE93E0A0E0B0E080939004909389
:101210009104A0939204B09393048DE192E0909393
:101220008D0480938C0485E391E0909399048093DE
:10123000980484E391E090939B0480939A0480E364
:1012400091E090939D0480939C0481E391E09093BE
:101250009F0480939E0482E391E09093A104809385
:10126000A00486E391E09093A3048093A2041092DB
:10127000A5041092A6041092A7041092A804089541
:10128000AF92BF92CF92DF92EF92FF920F931F9394
:10129000CF93DF936C017B01C0E0D0E000E010E071
:1012A000F601EC0FFD1F4AE050E06281C7010E9489
:1012B000340A5C016EE2C7010E94C7098A0D9B1DBA
:1012C000080F191F2196C330D10551F74AE050E0AD
:1012D000F6016581C7010E94340A800F911FDF91DA
:1012E000CF911F910F91FF90EF90DF90CF90BF9023
:1012F000AF9008958DE292E090932A05809329059E
:1013000010922B0510922C0510922D0510922E058F
:101310000895CF92DF92EF92FF920F931F93CF9396
:10132000DF936C017A01EB01E60EF71E00E010E09E
:10133000CE15DF0561F06991D601ED91FC91019028
:10134000F081E02DC6011995080F191FF1CFC801D2
:10135000DF91CF911F910F91FF90EF90DF90CF9091
:1013600008956115710581F0DB010D900020E9F70A
:10137000AD0141505109461B570BDC01ED91FC9129
:101380000280F381E02D199480E090E00895DC0163
:10139000ED91FC910190F081E02D19948F929F9234
:1013A000AF92BF92CF92DF92EF92FF920F931F9373
:1013B000CF93DF93CDB7DEB7A1970FB6F894DEBF1A
:1013C0000FBECDBF7C01C42EE52FCB01D22E19A2BA
:1013D00021E02D1510F02AE0D22E8E010F5D1F4F57
:1013E0008D2C912CA12CB12C6C2D7E2FA50194015C
:1013F0000E94D00E8C2DD29E80191124015011090B
:101400008A3014F4805D01C0895CF8018083211565
:1014100031054105510521F0C22EE32FCA01E4CF69
:10142000B801C7010E94B109A1960FB6F894DEBFBA
:101430000FBECDBFDF91CF911F910F91FF90EF9025
:10144000DF90CF90BF90AF909F908F90089521151F
:10145000310541F4DC01ED91FC910190F081E02D2A
:10146000642F19940C94CE099A01462F50E060E045
:1014700070E00C94270A8230A9F028F4882349F000
:10148000813051F00895843009F1E8F0853009F198
:10149000089510926E00089580916F008D7F809363
:1014A0006F000895809170008D7F8093700081E0BF
:1014B0008093B0008091B100887F84608093B100F8
:1014C0001092B30008951092710008951092720066
:1014D0000895109273000895CF93C82F80910C0245
:1014E0008C1307C0E4EAF1E084919FEF90930C0223
:1014F00001C08FEF0E943B0A60E08C2FCF910C94CB
:10150000FE0D1F920F920FB60F9211240BB60F9281
:101510002F933F934F935F936F937F938F939F93FB
:10152000AF93BF93EF93FF93809132059091330572
:10153000A0913405B0913505892B8A2B8B2B51F165
:1015400090912F05E0913005F09131058081892738
:1015500080838091320590913305A0913405B0913C
:101560003505181619061A061B06C4F480913205B3
:1015700090913305A0913405B09135050197A109EB
:10158000B1098093320590933305A0933405B0934D
:10159000350504C080910C020E946C0AFF91EF9106
:1015A000BF91AF919F918F917F916F915F914F917B
:1015B0003F912F910F900BBE0F900FBE0F901F9079
:1015C00018951F920F920FB60F9211240BB60F921F
:1015D0002F933F934F935F936F937F938F939F933B
:1015E000AF93BF93EF93FF9380913A0590913B05A2
:1015F000892B29F0E0913A05F0913B051995FF916F
:10160000EF91BF91AF919F918F917F916F915F917A
:101610004F913F912F910F900BBE0F900FBE0F90E7
:101620001F9018951F920F920FB60F9211240BB6B0
:101630000F922F933F934F935F936F937F938F936B
:101640009F93AF93BF93EF93FF9380913C0590914D
:101650003D05892B29F0E0913C05F0913D05199558
:10166000FF91EF91BF91AF919F918F917F916F917A
:101670005F914F913F912F910F900BBE0F900FBE36
:101680000F901F9018951F920F920FB60F92112472
:101690000BB60F922F933F934F935F936F937F936C
:1016A0008F939F93AF93BF93EF93FF9380913E05EA
:1016B00090913F05892B29F0E0913E05F0913F057F
:1016C0001995FF91EF91BF91AF919F918F917F916C
:1016D0006F915F914F913F912F910F900BBE0F90A3
:1016E0000FBE0F901F9018951F920F920FB60F927A
:1016F00011240BB60F922F933F934F935F936F93E9
:101700007F938F939F93AF93BF93EF93FF938091BA
:10171000400590914105892B29F0E0914005F09119
:1017200041051995FF91EF91BF91AF919F918F91D5
:101730007F916F915F914F913F912F910F900BBED1
:101740000F900FBE0F901F9018951F920F920FB61B
:101750000F9211240BB60F922F933F934F935F93E9
:101760006F937F938F939F93AF93BF93EF93FF9369
:101770008091360590913705892B29F0E091360547
:10178000F09137051995FF91EF91BF91AF919F911E
:101790008F917F916F915F914F913F912F910F901A
:1017A0000BBE0F900FBE0F901F9018951F920F92B7
:1017B0000FB60F9211240BB60F922F933F934F93B6
:1017C0005F936F937F938F939F93AF93BF93EF93A9
:1017D000FF938091380590913905892B29F0E0918C
:1017E0003805F09139051995FF91EF91BF91AF91AF
:1017F0009F918F917F916F915F914F913F912F9129
:101800000F900BBE0F900FBE0F901F9018951F9258
:101810000F920FB60F9211240BB60F922F933F9396
:101820004F935F936F937F938F939F93AF93BF93E8
:10183000EF93FF938091420590914305892B29F006
:10184000E0914205F09143051995FF91EF91BF9109
:10185000AF919F918F917F916F915F914F913F9148
:101860002F910F900BBE0F900FBE0F901F901895E9
:101870001F920F920FB60F9211240BB60F922F9357
:101880003F934F935F936F937F938F939F93AF9308
:10189000BF93EF93FF938091440590914505892B69
:1018A00029F0E0914405F09145051995FF91EF91DC
:1018B000BF91AF919F918F917F916F915F914F9168
:1018C0003F912F910F900BBE0F900FBE0F901F9066
:1018D0001895089508950E940F0D0E946A0C0E94A9
:1018E0009101C5E4D5E00E94EC012097E1F30E944C
:1018F0004505F9CF1F920F920FB60F9211242F9327
:101900003F938F939F93AF93BF938091470590919F
:101910004805A0914905B0914A053091460523E05C
:10192000230F2D3720F40196A11DB11D05C026E817
:10193000230F0296A11DB11D2093460580934705F4
:1019400090934805A0934905B0934A0580914B05B3
:1019500090914C05A0914D05B0914E050196A11DA9
:10196000B11D80934B0590934C05A0934D05B0930A
:101970004E05BF91AF919F918F913F912F910F9005
:101980000FBE0F901F9018953FB7F89480914B05AC
:1019900090914C05A0914D05B0914E0526B5A89BA0
:1019A00005C02F3F19F00196A11DB11D3FBF66274D
:1019B000782F892F9A2F620F711D811D911D42E092
:1019C000660F771F881F991F4A95D1F70895CF9208
:1019D000DF92EF92FF92CF93DF936B017C010E9425
:1019E000C40CEB01C114D104E104F10489F00E949C
:1019F000690C0E94C40C6C1B7D0B683E734090F315
:101A000081E0C81AD108E108F108C851DC4FEACFDB
:101A1000DF91CF91FF90EF90DF90CF900895789471
:101A200084B5826084BD84B5816084BD85B58260E3
:101A300085BD85B5816085BDEEE6F0E08081816081
:101A40008083E1E8F0E01082808182608083808181
:101A500081608083E0E8F0E0808181608083E1EB59
:101A6000F0E0808184608083E0EBF0E08081816041
:101A70008083E1E9F0E08081826080838081816001
:101A80008083E0E9F0E0808181608083E1EAF0E03A
:101A9000808182608083808181608083E0EAF0E0E1
:101AA000808181608083E1E2F1E0808182608083D7
:101AB000808181608083E0E2F1E0808181608083C9
:101AC000EAE7F0E0808184608083808182608083A7
:101AD0008081816080838081806880831092C100D2
:101AE000089590E0FC013197E231F10508F04CC017
:101AF000EE58FF4F0C94F20E809180008F7703C058
:101B0000809180008F7D8093800008958091800077
:101B1000877FF9CF84B58F7702C084B58F7D84BD70
:101B200008958091B0008F7703C08091B0008F7DC1
:101B30008093B0000895809190008F7707C08091C6
:101B400090008F7D03C080919000877F80939000EC
:101B500008958091A0008F7707C08091A0008F7DAD
:101B600003C08091A000877F8093A000089580919A
:101B700020018F7707C0809120018F7D03C0809165
:101B80002001877F809320010895CF93DF9390E019
:101B9000FC01E551FE4F2491FC01EF5CFD4F849167
:101BA000882349F190E0880F991FFC01EF56FD4F03
:101BB000A591B49189589D4FFC01C591D4919FB7CF
:101BC000611108C0F8948C91209582238C938881B0
:101BD00082230AC0623051F4F8948C91322F3095F0
:101BE00083238C938881822B888304C0F8948C9102
:101BF000822B8C939FBFDF91CF9108950F931F93FA
:101C0000CF93DF931F92CDB7DEB7282F30E0F901D5
:101C1000EB55FE4F8491F901E551FE4F1491F90106
:101C2000EF5CFD4F04910023C9F0882321F0698304
:101C30000E94710D6981E02FF0E0EE0FFF1FE9585F
:101C4000FD4FA591B4919FB7F8948C91611103C099
:101C50001095812301C0812B8C939FBF0F90DF9142
:101C6000CF911F910F91089526E040E855E260E082
:101C700070E085EB92E00C942A06CF93DF9385EB1E
:101C800092E00E941605181619060CF05EC085EB4E
:101C900092E00E943105811137C0C0915002D0916D
:101CA000510285EB92E00E9431058883C091500279
:101CB000D091510285EB92E00E9431058983C09159
:101CC0005002D091510285EB92E00E9431058A8347
:101CD000C0914D02D0914E0285EB92E00E943105F9
:101CE0008883C0914D02D0914E0285EB92E00E9414
:101CF00031058983C0914D02D0914E0285EB92E06F
:101D00000E9431058A8321C085EB92E00E94310553
:101D10008093530285EB92E00E94310580934A0242
:101D200085EB92E00E943105D82F80E0C82FD09338
:101D30004C02C0934B0285EB92E00E9431058C2B44
:101D40009D2B90934C0280934B02DF91CF9108958D
:101D5000AA1BBB1B51E107C0AA1FBB1FA617B707D1
:101D600010F0A61BB70B881F991F5A95A9F78095ED
:101D70009095BC01CD01089597FB072E16F40094B1
:101D800007D077FD09D00E94A80E07FC05D03EF4CD
:101D9000909581959F4F0895709561957F4F089517
:101DA000A1E21A2EAA1BBB1BFD010DC0AA1FBB1F5F
:101DB000EE1FFF1FA217B307E407F50720F0A21BD1
:101DC000B30BE40BF50B661F771F881F991F1A943E
:101DD00069F760957095809590959B01AC01BD0168
:101DE000CF010895EE0FFF1F0590F491E02D199497
:101DF0000E94030FB7FF0895821B930B089507906D
:101E0000F691E02D1994A29FB001B39FC001A39F4A
:101E1000700D811D1124911DB29F700D811D112423
:081E2000911D0895F894FFCF15
:101E280000004F058000010000001E00FF000000B8
:101E380000AA04B6048F01C20400000000C5058989
:101E480009160531052305A3050000000040090017
:00000001FF
